:020000040800F2
:10000000D408002085150008D9AA0008DDAA000838
:10001000E1AA0008E5AA0008E9AA0008000000001B
:10002000000000000000000000000000EDAA000831
:10003000F1AA000800000000F5AA0008F9AA0008CB
:100040008115000881150008811500088115000838
:100050008115000881150008811500088115000828
:100060008115000881150008811500088115000818
:100070008115000881150008811500088115000808
:1000800081150008811500088115000881150008F8
:1000900081150008811500088115000881150008E8
:1000A00081150008811500088115000881150008D8
:1000B00081150008811500088115000881150008C8
:1000C00081150008811500088115000881150008B8
:1000D00081150008811500088115000881150008A8
:1000E00001AB000881150008811500088115000882
:1000F0008115000881150008811500088115000888
:100100008115000881150008811500088115000877
:100110008115000881150008811500088115000867
:100120008115000881150008811500088115000857
:100130008115000881150008811500088115000847
:100140008115000881150008811500088115000837
:100150008115000881150008811500088115000827
:100160008115000881150008811500088115000817
:100170008115000881150008811500088115000807
:0801800081150008811500083B
:1001880040CB010800000020D800002040CB010827
:100198000000001000000010D80800207C86002015
:0801A80000000010000000102F
:1001B0000346054A126812B90449034A1160024A0B
:1001C0001068034413607047D80800207C86002024
:1001D0004FF0FF30704700BF4FF400534B600020DA
:1001E000704700BF01207047002070470020704713
:1001F0001046704708B5C1B2044801F0B7F803488B
:10020000402101F061F90028F9D008BD0048004004
:1002100001700120704700BF0246002003E0013159
:100220001370013001320B78002BF8D1704700BFFA
:100230002DE9F041044688461F46551E092B11D969
:10024000124BA3FB07232A46DB08FFF7F1FF064604
:1002500004440AE020464146FFF7DAFF0134013644
:10026000013D00E00026002DF4DC0849A1FB073128
:10027000C90801EB81014900791A3031204649B2A1
:10028000FFF7C6FF3044BDE8F08100BFCDCCCCCC39
:100290002DE9F84304468846B3F1000902DAC9F1B2
:1002A000000700E04F46551E092F1AD9B9F1000F7B
:1002B0000BDA204BA3FB0723DB08204641462A46E6
:1002C0005B42FFF7E5FF064609E01A4BA3FB072355
:1002D000204641462A46DB08FFF7DAFF064634444B
:1002E00017E0B9F1000F00DA951E002606E020465F
:1002F0004146FFF78DFF01340136013D002DF6DC4C
:10030000B9F1000F05DA20462D21FFF781FF0644E1
:1003100001340849A1FB0731C90801EB81014900FB
:10032000791A3031204649B2FFF772FF3044BDE8F8
:10033000F88300BFCDCCCCCC2DE9F04383B004468C
:100340000F469946DDF82880551E5FEA18130FD036
:1003500000932A464B46FFF7EFFF064604440AE0A7
:1003600020463946FFF754FF01340136013D00E0D5
:100370000026002DF4DC08F00F03092B05D81946E0
:1003800020463031FFF744FF10E0B9F1000F06D0EE
:1003900008F00F0120463731FFF73AFF06E008F07A
:1003A0000F015731204649B2FFF732FF701C03B0EE
:1003B000BDE8F0832DE9F04182B00F46984606462D
:1003C00008B100230370002581E059B2252904D02B
:1003D000013233700135013679E0537859B225295D
:1003E00005D1252333700232013501366FE0541CEC
:1003F0005BB2302B02D1941C302100E0202100227E
:1004000007E002EB820253007344303B03F0FF022B
:10041000013494F800C05FFA8CFEAEF13000C0B237
:100420000928EED95319BB4201D97B1BDAB24FFA26
:100430008CFCACF1580CBCF1200F58D8DFE80CF064
:100440002B575757575757575757573D11575757C8
:1004500057115757575757575757573557195757D2
:1004600021003046D8F8003008F10408FFF710FFEB
:100470002AE03046D8F8003008F10408FFF7D8FE2B
:1004800022E0D8F8003008F1040800933046002339
:10049000FFF752FF18E0D8F8003008F10408009385
:1004A00030460123FFF748FF0EE03046D8F8001031
:1004B00008F10408FFF7B0FE06E0304698F9001096
:1004C00008F10408FFF7A4FE621C064405441378F3
:1004D00013B1BD42FFF479AFBD4202D200233370A5
:1004E00003E0002306F8013C013D284601E04FF0FF
:1004F000FF3002B0BDE8F08110B50C461346642110
:100500002246FFF757FF10BD10B50446074B1B6886
:100510009A688A4202D0DB688B4204D160B2FFF74E
:1005200069FE204610BD4FF0FF3010BDD400002002
:1005300070B504460E46002508E040B23146FFF78C
:10054000E3FFB0F1FF3F05D00135013420780028EA
:10055000F3D1284670BD00BFF0B5A3B006468E4665
:1005600017466C460D4D0FCD0FC40FCD0FC42B6831
:10057000236009A871463A46FFF7BEFF632806DDEF
:10058000074B1B686846D968FFF7D2FFFEE709A84A
:100590003146FFF7CDFF23B0F0BD00BF30BC0008EF
:1005A000D400002008B503460A4603490968886854
:1005B0001946FFF7D1FF08BDD40000200FB400B5E5
:1005C00083B004A951F8040B0191FFF7EBFF03B0CE
:1005D0005DF804EB04B0704708B5034B1B689968DD
:1005E000FFF7A6FF08BD00BFD400002010B50446E9
:1005F000B0F5E06F0FD0B0F5C06F0CD0B0F5A06FC4
:1006000009D0B0F5806F06D0B0F5407F03D0054823
:1006100074210AF0BFF944F0BF6444F40034024B83
:10062000DC6010BD54BC000800ED00E010B50446CD
:10063000C378012B03D9214888210AF0ABF96378EC
:100640000F2B03D91D4889210AF0A4F9A3780F2B99
:1006500003D91A488A210AF09DF9E37813B3184B9D
:10066000DA68D243C2F30222C2F10401C9B20F23F5
:1006700043FA02F063788B40DAB2A17800EA010312
:1006800013431B01DBB222780E490A4482F800337F
:100690002378580903F01F03012202FA03F341F8FB
:1006A000203010BD23785A0903F01F03012199401F
:1006B00002F12003034A42F8231010BD54BC000885
:1006C00000ED00E000E100E010B50446042806D08B
:1006D00010F1050F03D00948DD210AF05BF9042C65
:1006E00005D1074A136843F00403136010BD044AA0
:1006F000136823F00403136010BD00BF54BC00084E
:1007000010E000E038B505460C46514B98420BD03E
:1007100003F58073984207D003F58073984203D0A5
:100720004C48E9210AF036F9236863B1B3F1807FC0
:1007300009D0B3F1007F06D0B3F1407F03D0454824
:10074000EA210AF027F92379012B03D94148EB214B
:100750000AF020F96379012B03D93E48EC210AF015
:1007600019F9A36863B1B3F1805F09D0B3F1005FF9
:1007700006D0B3F1405F03D03648ED210AF00AF904
:10078000E36883B3B3F1807F2DD0B3F1007F2AD02B
:10079000B3F1407F27D0B3F1806F24D0B3F1A06FC5
:1007A00021D0B3F1C06F1ED0B3F1E06F1BD0B3F115
:1007B000006F18D0B3F1106F15D0B3F1206F12D0C5
:1007C000B3F1306F0FD0B3F1406F0CD0B3F1506F75
:1007D00009D0B3F1606F06D0B3F1706F03D01D483C
:1007E000EE210AF0D7F8236933B1B3F5006F03D0D7
:1007F0001848EF210AF0CEF8237D013BDBB20F2B26
:1008000003D91448F0210AF0C5F86B6823F040734F
:1008100023F480732179226842EA012213436B603A
:10082000AA680D4B13402169E2681143A2680A438C
:10083000617942EA41021343AB60EB6A23F4700230
:10084000237D013BDBB242EA0353EB6238BD00BFBC
:100850000020014074BC0008FDF7FFC000230360C6
:10086000037143718360C3600361012303757047A3
:1008700010B504460368022B18D9052B16D0062B99
:1008800014D0072B12D0092B10D0112B0ED0122B05
:100890000CD0152B0AD0162B08D0172B06D0192BED
:1008A00004D033484FF4A9710AF074F863686BB14F
:1008B000B3F5803F0AD0B3F5003F07D0B3F5403F12
:1008C00004D02B4840F253110AF064F8A3686BB1CE
:1008D000B3F5804F0AD0B3F5004F07D0B3F5404FC2
:1008E00004D023484FF4AA710AF054F8E3688BB39C
:1008F000B3F5807F2ED0B3F5007F2BD0B3F5407FCA
:1009000028D0B3F5806F25D0B3F5A06F22D0B3F512
:10091000C06F1FD0B3F5E06F1CD0B3F5006F19D0D6
:10092000B3F5106F16D0B3F5206F13D0B3F5306F59
:1009300010D0B3F5406F0DD0B3F5506F0AD0B3F5BA
:10094000606F07D0B3F5706F04D0094840F25511BD
:100950000AF020F807484268074B13402168626894
:100960001143A2681143E2680A431343436010BD78
:1009700074BC000800230140E030FCFF38B5044699
:100980000D46114B98420CD003F58073984208D065
:1009900003F58073984204D00C4840F28B1109F0A3
:1009A000F9FF012D04D909484FF4C67109F0F2FF8F
:1009B00025B1A36843F00103A36038BDA36823F009
:1009C0000103A36038BD00BF0020014074BC0008D3
:1009D000F8B507460E4614461D46354B98420CD0D6
:1009E00003F58073984208D003F58073984204D0D1
:1009F00030484FF4327109F0CDFF122E04D92D4842
:100A000040F2C92109F0C6FF631EDBB20F2B04D9E7
:100A1000284840F2CA2109F0BDFF072D04D9254816
:100A200040F2CB2109F0B6FF092E0CD9F968A6F1E6
:100A30000A0303EB430307229A4021EA02029D4086
:100A40001543FD6009E03A6906EB460107238B4038
:100A500022EA03038D401D433D61062C0CD87A6BBE
:100A6000013C04EB84041F21A14022EA010306FAA1
:100A700004F119437963F8BD0C2C0CD83A6B073C90
:100A800004EB84041F21A14022EA010306FA04F1C9
:100A900019433963F8BDFA6A0D3C04EB84041F2145
:100AA000A14022EA010306FA04F11943F962F8BDF4
:100AB0000020014074BC000810B504460A4B98425F
:100AC0000CD003F58073984208D003F580739842E8
:100AD00004D0064840F23F3109F05CFFA36843F0C0
:100AE0008043A36010BD00BF0020014074BC00081B
:100AF00010B50446094B98420CD003F58073984218
:100B000008D003F58073984204D0054840F2D531EF
:100B100009F040FFE06C80B210BD00BF0020014032
:100B200074BC000810B5044603792BB1042B03D024
:100B300030487D2109F02EFF6379082B07D00C2B5C
:100B400005D0102B03D02B487E2109F023FF22680B
:100B5000D30DDB0503B91AB926487F2109F01AFF26
:100B6000A379012B03D92348802109F013FFA3792E
:100B7000002B33D0204B1A68216822EA01021A6048
:100B80005A68216822EA01025A60227902F1804201
:100B900002F59E3210682168014311609A6821684D
:100BA00022EA01029A60DA68216822EA0102DA6028
:100BB0006379102B09D1104B996822680A439A6017
:100BC000D96822680A43DA6010BD03F1804303F557
:100BD0009E33196822680A431A6010BD237903F115
:100BE000804303F59E331A68216822EA01021A60E5
:100BF00010BD00BF9CBC0008003C014010B504467D
:100C0000431E012B3DD904283BD0082839D0102899
:100C100037D0202835D0402833D0802831D0B0F5C7
:100C2000807F2ED0B0F5007F2BD0B0F5806F28D01C
:100C3000B0F5006F25D0B0F5805F22D0B0F5005F31
:100C40001FD0B0F5804F1CD0B0F5004F19D0B0F5D3
:100C5000803F16D0B0F5003F13D0B0F5802F10D0F4
:100C6000B0F5002F0DD0B0F5801F0AD0B0F5001FF1
:100C700007D0B0F5800F04D0084840F2071109F002
:100C800089FE074A136823405269224202D01BB9E9
:100C9000002010BD002010BD012010BD9CBC00082C
:100CA000003C014010B50446C30DDB0503B920B973
:100CB00003484FF48F7109F06DFE024B5C6110BD6B
:100CC0009CBC0008003C01402DE9F04105460E4661
:100CD000464B984223D003F5806398421FD003F51A
:100CE000806398421BD003F58063984217D003F5C8
:100CF0008063984213D003F5806398420FD003F5C8
:100D0000806398420BD003F58063984207D003F5C7
:100D10008063984203D03648BB2109F03BFE33681C
:100D20001BB93348BC2109F035FE3379032B03D9B5
:100D30002F48BD2109F02EFEF379022B03D92C4850
:100D4000BE2109F027FE00244CE00123A3403268B5
:100D50001A409A4245D12B684FEA4408032707FA04
:100D600008F7FF433B402B602A68337903FA08F306
:100D700013432B603379013BDBB2012B23D873790A
:100D8000032B03D91A48D02109F004FEAB681F4099
:100D9000AF60AA68737903FA08F31343AB60B379C1
:100DA000012B03D91248D72109F0F4FD6A68A1B2DA
:100DB00001238B4022EA03036B606A68B3798B409E
:100DC0009BB213436B60EA68A1B2490003238B40D6
:100DD00022EA0303EB60EA68F37903FA08F31343AA
:100DE000EB6001340F2CB0D9BDE8F0810000024067
:100DF000C8BC000870B505460C461646364B9842EE
:100E000024D003F58063984220D003F58063984294
:100E10001CD003F58063984218D003F58063984294
:100E200014D003F58063984210D003F58063984294
:100E30000CD003F58063984208D003F58063984294
:100E400004D0264840F2172109F0A4FD0F2C04D944
:100E500022484FF4067109F09DFD3EB3092E25D0BE
:100E600026B3012E22D0022E20D0032E1ED0042E17
:100E70001CD0052E1AD0092E18D0062E16D0092EF9
:100E800014D0072E12D0082E10D0092E0ED00A2E04
:100E90000CD00B2E0AD00C2E08D00D2E06D00F2E03
:100EA00004D00E4840F2192109F074FD04F0070344
:100EB0009B009E40E108083155F821200F2000FAE0
:100EC00003F322EA030345F8213055F821301E438D
:100ED00045F8216070BD00BF00000240C8BC00089A
:100EE00010B4294B9B6803F00C03042B05D0082B8E
:100EF00006D053BB254B036029E0254B036026E059
:100F0000214B5A685B6803F03F0312F4800F09D04D
:100F10001F4AB2FBF3F21C4B5B68C3F3881303FB5D
:100F200002F208E0194AB2FBF3F3174A5168C1F321
:100F3000881101FB03F2144B5B68C3F301430133D7
:100F40005B00B2FBF3F3036001E0104B03600E4A59
:100F50009368C3F303130F49CC5CE4B20368E34026
:100F600043609468C4F382240C5DE4B223FA04F471
:100F700084609268C2F342328A5CD2B2D340C360CA
:100F80005DF8044B704700BF003802400024F400B5
:100F900000127A000000002038B504460D460E4BC2
:100FA000034003B920B90D484FF4886109F0F2FC01
:100FB000012D04D9094840F2424109F0EBFC25B16A
:100FC000074B1A6B14431C6338BD054A136B23EAA5
:100FD0000404146338BD00BF00EE8B81F4BC00082C
:100FE0000038024038B504460D460E4B184200D179
:100FF00020B90D4840F2AD4109F0CCFC012D04D9D7
:10100000094840F2AE4109F0C5FC25B1074B1A6C06
:1010100014431C6438BD054A136C23EA04041464A9
:1010200038BD00BF003601C9F4BC000800380240DA
:1010300038B504460D460E4B034003B920B90D48A0
:1010400040F2D54109F0A6FC012D04D9094840F22F
:10105000D64109F09FFC25B1074B5A6C14435C64E0
:1010600038BD054A536C23EA0404546438BD00BFFC
:10107000CCA0F8FFF4BC00080038024038B50446A4
:101080000D460E4B034003B920B90D4840F2FC4118
:1010900009F080FC012D04D9094840F2FD4109F016
:1010A00079FC25B1074B1A6914431C6138BD054A08
:1010B000136923EA0404146138BD00BF00EE9FDD0C
:1010C000F4BC00080038024038B505460C46082834
:1010D00003D90F487C2109F05DFC0F2C03D90C4883
:1010E0007D2109F057FC04F0030292000F2090408C
:1010F000A108084B023153F8214024EA000043F8CC
:10110000210053F821009540054343F8215038BD94
:101110001CBD00080038014010B50446012803D961
:1011200003488E2109F036FC024B1C6010BD00BF45
:101130001CBD0008DC00274230B585B004460D46D2
:101140006A4B984217D0A3F54C43984213D003F54D
:10115000806398420FD003F5806398420BD003F56B
:101160008063984207D003F54443984203D0604817
:10117000EB2109F00FFC2B68013B5E4A934203D937
:101180005B48EC2109F006FCAB8833B1B3F5805F16
:1011900003D05748ED2109F0FDFBEB8863B1B3F5AF
:1011A000805F09D0B3F5005F06D0B3F5405F03D090
:1011B0004F48EE2109F0EEFB2B894BB1B3F5806F60
:1011C00006D0B3F5C06F03D04948EF2109F0E2FB28
:1011D0006A8922F00C039BB203B91AB94448F02182
:1011E00009F0D8FBAB8963B1B3F5807F09D0B3F5C3
:1011F000007F06D0B3F5407F03D03D48F12109F0D0
:10120000C9FBAB8993B1394B9C420FD0A3F54C433A
:101210009C420BD003F580639C4207D003F54C43FE
:101220009C4203D03248F62109F0B4FB238A9BB2DA
:1012300023F44053EA8813432382A3899BB223F407
:10124000B05323F00C02AB88298968890B43034310
:101250001343A381A38A9BB223F44073AA89134347
:10126000A3826846FFF73CFE204B9C4203D003F567
:1012700080639C4201D1039B00E0029BA28912B2D1
:10128000002A08DA03EB830303EB83032968490090
:10129000B3FBF1F107E003EB830303EB830329685E
:1012A0008900B3FBF1F1144BA3FB0123580905019D
:1012B000642300FB1313A28912B2002A09DAD900B1
:1012C00032310D4AA2FB0131C1F3421242EA050359
:1012D00007E01B013233084AA2FB0323C3F3431385
:1012E0002B439BB2238105B030BD00BF00100140ED
:1012F00048BD0008DF7072001F85EB5138B5044609
:101300000D46184B984218D0A3F54C43984214D080
:1013100003F58063984210D003F5806398420CD0A7
:1013200003F58063984208D003F54443984204D003
:101330000D4840F29B1109F02DFB012D04D90A48FC
:101340004FF4CE7109F026FB2DB1A3899BB243F473
:101350000053A38138BDA38923F400531B041B0C45
:10136000A38138BD0010014048BD000838B50446CF
:101370000D46144B984218D0A3F54C43984214D014
:1013800003F58063984210D003F5806398420CD037
:1013900003F58063984208D003F54443984204D093
:1013A000094840F21D2109F0F5FAB5F5007F04D394
:1013B000054840F21E2109F0EDFAC5F30805A580A5
:1013C00038BD00BF0010014048BD000870B504469C
:1013D0000D4616463A4B984218D0A3F54C43984216
:1013E00014D003F58063984210D003F580639842CF
:1013F0000CD003F58063984208D003F5444398422B
:1014000004D0304840F2BD4109F0C4FA282D1ED066
:1014100040F227739D421AD040F226639D4216D0B7
:1014200040F225539D4212D040F224439D420ED0FB
:1014300040F646039D420AD040F66A139D4206D00C
:10144000602D04D01F4840F2BE4109F0A3FA012EDE
:1014500004D91C4840F2BF4109F09CFA40F66A13D7
:101460009D4213D1164B9C4210D0A3F54C439C4295
:101470000CD003F580639C4208D003F54C439C429A
:1014800004D0104840F2C44109F084FAC5F3421276
:1014900005F01F050123AB40012A01D10C3404E003
:1014A000022A01D1103400E014341EB12268134323
:1014B000236070BD226822EA0303236070BD00BF71
:1014C0000010014048BD000838B504460D462A4BBF
:1014D000984218D0A3F54C43984214D003F580638A
:1014E000984210D003F5806398420CD003F58063D6
:1014F000984208D003F54443984204D01F4840F274
:10150000FC4109F047FA012D18D0802D16D0402D4E
:1015100014D0202D12D0102D10D0B5F5807F0DD015
:10152000B5F5007F0AD0082D08D0042D06D0022D75
:1015300004D0124840F2FD4109F02CFAB5F5007FC5
:1015400013D10D4B9C4210D0A3F54C439C420CD0C0
:1015500003F580639C4208D003F54C439C4204D0C1
:10156000064840F2025109F015FA23881D4201D0C5
:10157000012038BD002038BD0010014048BD0008E2
:10158000FEE700BF08B50C4B0C4A03E01168196078
:10159000043304320A498B42F8D30A480A494FF00F
:1015A00000028842B8BF40F8042BFADB00F070F864
:1015B00009F0CEF908BD00BF0000002040CB0108B3
:1015C000D8000020D80800207C86002082B00023AC
:1015D000019300932A4A136843F480331360284B25
:1015E0001B6803F400330093019B01330193009BBC
:1015F0001BB9019BB3F5A06FF1D1214B1B6813F40C
:10160000003F02D00123009301E000230093009BE0
:10161000012B32D11A4B1A6C42F080521A641949CC
:101620000A6842F480420A609A689A609A6842F4B2
:1016300000429A609A6842F4A0529A60124A5A6034
:101640001A6842F080721A600D4B1B6813F0007F1D
:10165000FAD040F205620D4B1A60A3F580639A68D8
:1016600022F003029A609A6842F002029A60044BE8
:101670009B6803F00C03082BF9D102B0704700BF40
:10168000003802400070004008544007003C02400F
:1016900008B50D4B1A6842F001021A6000219960EA
:1016A0001A6822F0847222F480321A60074A5A6063
:1016B0001A6822F480221A60D960FFF787FF4FF082
:1016C0000062034B9A6008BD0038024010300024CD
:1016D00000ED00E038B5044608E02568606803F0D6
:1016E0001BFC0620214603F0EBF92C46002CF4D11C
:1016F00038BD00BF2DE9F04F83B08A46054600286B
:101700007FD0834B1B7803EB83018900814A0A4415
:101710009279022A7ED1016803EB830292007E480F
:101720000244526891427ED1D8B2ECE04FFA8EF377
:101730000A2B0DD104EB84029200764B13449B7963
:1017400033B976482146FEF739FF5FFA84FE55E04B
:10175000214604EB840292006E4B13449B79012BCB
:101760002ED17DB12A6804EB84039B006A480344B0
:101770005B689A4206D16A48FEF720FF644B1C70F2
:10178000E0B2C0E001EB81039B00634AD3585BB138
:1017900001EB8101890002F108031944CB79B342BE
:1017A0002CD3E7B21E4629E001EB81018900594B99
:1017B0001944CB795B4521D3E2B201929B461DE0EF
:1017C000022B1BD17DB12A6804EB84039B00524895
:1017D00003445B689A4206D15248FEF7EFFE4C4B39
:1017E0001C70E0B28FE001EB81018900494B194484
:1017F000CB79434502D35FFA84F998460134E4B2C9
:1018000019E000260A27B046B3463446BE46B9461C
:10181000019710E000260A27B046B3463446BE467C
:10182000B946019707E000260A27B046B34634467A
:10183000BE46B9460197092C7FF678AF4FFA8EF372
:101840000A2B02D11AF0010F02D01AF0020F04D0B5
:101850003548FEF7C1FEFF2055E04FFA8EF3092B05
:1018600006DC5FFA8EF731483946FEF7A7FE2BE01B
:101870004FFA89F3092B06DC5FFA89F72C483946C1
:10188000FEF79CFE20E09DF90430092B06DC9DF854
:10189000047028483946FEF791FE15E07BB2092B0B
:1018A00030DCFFB2DFF87080BC00E619B6002248D9
:1018B000394658F80620FEF781FE58F80600FFF773
:1018C00009FF002248F806203B4607EB8701890004
:1018D000104A0A44002191714DB10DB1296800E010
:1018E000002103EB830292000B480244516003EB9A
:1018F00083039B00074A13440022DA71044B1F70D4
:10190000F8B200E0FF2040B203B0BDE8F08F00BFA6
:10191000DC080020E8080020E00800207CBD00086A
:10192000A0BD0008D0BD000800BE00083CBE0008F5
:1019300064BE000894BE0008D4BE0008F8B507468F
:101940000E464C68062106E00139C9B2585C605465
:10195000555C601885710029F6D14FF4006000F0E5
:10196000FBFEA08104483146FEF728FEBB693846DD
:1019700031469847F8BD00BF20BF00082DE9F04F61
:1019800089B006460C46154699464948FEF724FE9E
:10199000206800F0F7FE4FEA106A206800F0F2FEBF
:1019A0004FEA1048206800F0EDFE070A206800F0BA
:1019B000E9FE95F800B095F801C095F802E0E978E5
:1019C0002A796B79C0B20090CDF804B0CDF808C088
:1019D000CDF80CE0049105920693364851465FFA23
:1019E00088F2FBB2FEF7EAFD94B1236883B120468A
:1019F000314601F0F9F958B927684FF0704000F00E
:101A0000C1FE07404FF0604000F0BCFE874204D1A9
:101A10002948FEF7E1FDF62046E020464946FFF75B
:101A200069FE071E3FDB3C46BB003B449B00234A4C
:101A3000134402229A731E6121483946FEF7BEFD07
:101A4000062209E0013AD2B2A95C04EB84039B00B0
:101A50001A48034413441972002AF3D107EB87078D
:101A6000BF00184B1F440023FB7113E0086804EB10
:101A700084039B00114AD0504F68062003F020F8E1
:101A80003046394606F12B022B46FFF757FF384602
:101A900003F042FA04EB84039B00084AD158002962
:101AA000E4D1002000E0384640B209B0BDE8F08F34
:101AB00044BF000858BF0008A4BF0008E008002089
:101AC000E8BF0008E8080020F8B52048FEF784FDCC
:101AD000002437E02546A200224492001C4B1A4401
:101AE000D3790133DBB2D3719279022A01D1EF2B82
:101AF00003D8012A24D1012B22D9022A01D1154968
:101B000000E0154915482A46FEF758FD05EB850308
:101B10009B00134AD25862B112482946FEF74EFD87
:101B20000F4FAE002E44B600B859FFF7D3FD002387
:101B3000BB5105EB8505AD00054B1D440023AB7182
:101B40000134E4B2092CC5D9F8BD00BF24C0000897
:101B5000E808002014C000081CC0000834C00008B9
:101B6000E00800205CC00008A8B138B503464D6805
:101B7000D5F81A005A68996842400A420AD11C46B0
:101B80000548FEF729FD204605F11A01AA1D00238C
:101B9000FFF7F4FE38BD704790C00008002800F041
:101BA000CA802DE9F04385B0074614460E46538996
:101BB000292B08D8604811892A22FEF7FFFC20460D
:101BC00003F0AAF9B4E0556805F10E09B5F80E80E6
:101BD000012000F0C1FD804517D1B5F8128040F218
:101BE000046000F0B9FD80450FD1B5F810804FF4C6
:101BF000006000F0B1FD804507D1B5F80C8040F6DB
:101C0000060000F0A9FD804518D0B5F80E80688A5E
:101C100000F0A8FD07462E8A688A00F0A3FDAB8974
:101C2000C0B20090019345484146C7F30F223346A6
:101C3000FEF7C4FC204603F06FF979E038464946C8
:101C400000F086FBE8690390D5F8260002907B68D7
:101C50003BB1029A934214BF4FF000084FF00108C5
:101C600001E04FF00008B8F1000F07D0384603A993
:101C700005F116020123FFF781FE06E0384603A9AD
:101C800005F116020023FFF779FEA88A00F064FD33
:101C9000012802D0022839D040E02948FEF79CFCF8
:101CA000B8F1000F28D02748FEF796FC022000F07C
:101CB00053FDA882EB69C5F826307B68EB617B6A2F
:101CC0000BB11B7913B905F1160100E01E4906237B
:101CD0000BE0013BDBB2EA18907D82F82000C85C83
:101CE000E854F05C9075F05C9071002BF1D1BB6909
:101CF00038462146984718E07B681BB91348FEF721
:101D00006BFC12E01248FEF767FC0EE01148FEF78C
:101D100063FC384603A902F0B7FA06E0A88A00F08F
:101D20001BFD01460C48FEF749FC204603F0F4F881
:101D300005B0BDE8F0837047B8C00008F0C00008E7
:101D400060C1000888C1000874BD0008C8C100084F
:101D500004C2000834C200085CC200082DE9F04744
:101D600081460D4692461E46099F03202A210022E5
:101D700003F014F920B92748FEF72EFCFF2045E0B8
:101D8000804644682448FEF727FCBDF82C0000F08C
:101D9000E3FCA082D9F824300BB11B790BB9524671
:101DA00000E01E4A06230BE0013BDBB2F05CE118C9
:101DB0008875F85C81F82000D05CE054E85C88719C
:101DC000002BF1D1089B1B68E3610A9B1B68C4F8D8
:101DD0002630012000F0C0FCE0814FF4006000F0EC
:101DE000BBFC208240F2046000F0B6FC608240F64A
:101DF000060000F0B1FCA081D9F8183048464146F1
:101E000098470446404603F087F8204640B2BDE8B4
:101E1000F08700BF8CC20008C4C2000874BD00086F
:101E200030B585B004460D460948FEF7D5FB04F1F0
:101E30002B03221D0092074A019202950122039270
:101E400020461946044AFFF789FF05B030BD00BFA0
:101E5000E8C20008B0C4000874BD00082DE9F041D4
:101E600007460D46164600F12B080846394600F095
:101E7000BBFF70B92C684FF0704000F083FC044049
:101E80004FF0604000F07EFC844202D00DB12B6820
:101E900023B94D48FEF7A0FBF62092E02846012129
:101EA000FFF728FC041E08DA4848FEF795FB16B138
:101EB0004748FEF791FB204683E004EB8402920042
:101EC000444B13449B7933B904EB84029200414B99
:101ED000134401229A7104EB840292003D4B134497
:101EE0009B79012B00D02EB938462946FFF798FF81
:101EF000054600E0FF25002E62D004EB840292002C
:101F0000344B13449B79022B09D114463846314691
:101F10004246304B2344FFF711FD054650E0012BAC
:101F20004ED104E0137B012B06D1126800E032464B
:101F3000002AF7D1002300E001237BB1032011899F
:101F4000002203F02BF8074660B1314603F03CF95C
:101F500040B1384602F0E0FF002703E0304603F0CE
:101F600007F9374647B3062002F08EFD0146D8B187
:101F700000230360476004EB84039B00164AD25899
:101F80000AB905E01A461368002BFBD1116004E082
:101F900004EB84039B00104AD0501048314622467F
:101FA000FEF70CFB00250BE0384602F0B5FF0C48AD
:101FB0003146FEF703FB03E009483146FEF7FEFA1F
:101FC000284640B2BDE8F08110C3000850C30008A5
:101FD0007CC30008E8080020E00800209CC300083B
:101FE000CCC30008F0B583B004460E46154608463B
:101FF0000E2102F047FF20B12748FEF7EDFAFE2040
:1020000046E02846214600F0EFFEC0BB2F684FF0A7
:10201000704000F0B7FB07404FF0604000F0B2FBAB
:1020200087421CD101238DF8003000238DF8013048
:102030005E238DF80230286800F0A4FBC0F3064050
:102040008DF80300286800F09DFB000A8DF804005D
:10205000286800F097FB8DF805006B4610E02968B2
:102060006368A2684B40134203D0E3687BB104F17C
:102070000C05204629463246FFF7F0FE08E0074BE4
:102080002046314604F12B02FFF758FC00E0FC200B
:1020900040B203B0F0BD00BF18C4000874BD000812
:1020A0002DE9F04F93B00B901191446823780C9375
:1020B00062780D92A0780E9094F803B094F804A082
:1020C00094F8059094F80680E779267A657AA17AE3
:1020D0000F91E07A1090A08900F03EFBCDF800B09F
:1020E000CDF804A0CDF80890CDF80C8004970596A3
:1020F00006950F9D0795109D0895099019480C9914
:102100000D9A0E9BFEF75AFAA08900F025FBB0F558
:10211000006F04D040F60603984214D01AE01198DC
:102120000B9C2146FFF720FD20466FF00D0102F0C9
:10213000A9FE18B10B9802F0EFFE0EE00B98119972
:1021400000F03EFC09E0119908462B310B9AFFF78D
:1021500025FD02E00B9802F0DFFE002013B0BDE881
:10216000F08F00BF4CC40008426A012313710023A2
:10217000537190F8301090F82E301B0443EA01633D
:1021800090F82D1043EA012390F82F100B43416A79
:1021900009B1497A00E000211944084BA3FB01036F
:1021A000DB0803EB83035B00CB1AD380537A0A2B43
:1021B00002D94FF41673D380704700BFCDCCCCCC7E
:1021C00038B504460D4690F82F3090F8302043EA99
:1021D00002231148184400F0C9FA00F0D3FA636AE8
:1021E0005B7A184480B240F0294040F47E000B4BEB
:1021F000984201D800F57E40094B984201D9A0F5DC
:102200007E4000F0B3FA02462860636A0548597AB6
:10221000FEF7D4F938BD00BF0001FEA9FF00FEA9FA
:10222000FFFEFEA9B8C4000800B585B000F12B037D
:10223000426A0092054901910292012203921946D5
:10224000034AFFF78BFD05B05DF804FBB0C400083E
:1022500074BD000830B583B00546446A02F00CFE38
:1022600010B1284602F0FEFD00236B60AB60EB600E
:1022700095F8341095F9322095F9333000912348C0
:102280002946FEF79BF934BB2148FEF7A5F90A2041
:1022900002F064FB044620B91E48FEF79DF9FF20BA
:1022A00031E00346002203F8012B4270013303F8AA
:1022B000012B03F8012B03F8012B03F8012B03F882
:1022C000012B03F8012B03F8012B1A7068621248E6
:1022D000FEF774F90CE000232371E380637122465A
:1022E00002F8013B6370013202F8013B1370237264
:1022F00028462146FFF764FF637A0133637228465C
:10230000FFF732FF002040B203B030BD24C5000803
:1023100044C5000870C500089CC5000810B50446F7
:10232000436A1B7A33B10848FEF756F92046FFF797
:1023300091FF10BD0548FEF74FF92046FFF774FFE7
:10234000636A64221A7210BDC0C5000814C6000872
:1023500030B585B004460D462948FEF73DF9636A5D
:10236000002B4BD01A79002A48D094F82B208DF8F6
:10237000082094F82C208DF8092094F82D208DF851
:102380000A2094F82E208DF80B2094F82F208DF839
:102390000C2094F830208DF80D20D5F80E00009018
:1023A000A86901901A79012A02D09A88022A14D1C8
:1023B0001B68009A9A4209D0019A93421ED102A842
:1023C00005F10801062208F093FFB8B10D48FEF7A9
:1023D00003F92046FFF73EFF10E01B68009A9A427F
:1023E0000CD102A805F10801062208F081FF28B1EE
:1023F0000548FEF7F1F82046FFF790FF05B030BD25
:10240000C8C60008DCC6000808C700082DE9F04F60
:1024100085B007468946904601202421002202F01B
:10242000BDFD18B95748FEF7D7F8A7E005467C6808
:102430005548FEF7C3F814F10C0605D0E06800F02B
:10244000A1F94FEA106B01E04FF0000B2EB1E068EC
:1024500000F098F9C0F3074A01E04FF0000A36B1E6
:10246000E06800F08FF9C0F30723029301E0002336
:10247000029326B1E06800F085F9C0B200E00020C8
:102480000090424859465246029BFEF797F8404852
:10249000FEF794F814F1100A05D0206900F072F9E3
:1024A0004FEA106B01E04FF0000BBAF1000F06D0BD
:1024B000206900F067F9C0F30743029301E00023AD
:1024C0000293BAF1000F06D0206900F05BF9C0F367
:1024D0000723039301E000230393BAF1000F04D014
:1024E000206900F04FF9C0B200E0002000902748BA
:1024F0005946029A039BFEF761F80A2008F01CFF78
:102500006C6884F8009084F801804FF0000884F82B
:10251000048084F8058084F8068084F80780D5F864
:1025200004E07B681F6858689968D3F80CC0CEF83F
:102530000870CEF80C00CEF81010CEF814C01F6949
:1025400058699969CEF81870CEF81C00CEF82010A2
:1025500084F8028084F803802046698900F034F909
:102560006080CDF800800123019328464146324621
:10257000FF2300F017FC284602F0CEFC05B0BDE8B2
:10258000F08F00BF3CC700087CC7000898C7000850
:10259000A8C700082DE9F04385B005460F464668F8
:1025A000308800F0DFF8C0F3032080001FFA80F8C5
:1025B000404284B2284621B202F064FC10B92B8953
:1025C000032B04D856482989FDF7F8FF9EE06B6875
:1025D00019785A78082940F09280D6F810904FF078
:1025E000704000F0CFF809EA00094FF0604000F0B9
:1025F000C9F8814502D04FF0010901E04FF0000910
:1026000006F11000394600F0EFFB08B14FF0000969
:10261000B9F1000F06D14348FDF7DEFF284602F06E
:102620007BFC7AE04048FDF7D7FF2B89072B03D8C6
:102630003E48FDF7D1FF69E0284600F0CBF830B105
:102640003B48FDF7C9FF284602F066FC65E02846D6
:10265000222102F017FC10B32846414602F012FC7A
:10266000002857D102202989002202F097FC8146D8
:1026700018B93048FDF7B0FF4CE0294602F0A4FD40
:10268000002847D1D9F80460484621B202F0FAFB8D
:1026900000283FD1284602F03FFC4D4605E0284681
:1026A0006FF0210102F0EEFBA0BB6B68F2683169AC
:1026B000F160326100241C709C70DC70308900F085
:1026C00051F860F0FF0080B200F046F83081B4723B
:1026D000F4722846414602F0D5FB98B92246009490
:1026E000012301930297284606F10C01FF2300F015
:1026F000D1FA014630B11048FDF760FF02E00F4803
:10270000FDF75CFF284602F007FC06E0284602F0D1
:1027100003FC02E0284602F0FFFB05B0BDE8F083B1
:10272000B0C70008E0C7000818C800082CC8000897
:1027300050C8000884C80008ACC80008E0C80008F9
:1027400008B50A460321FFF761FE08BD08B50A4631
:102750000B21FFF75BFE08BD030A43EA002080B2AD
:10276000704700BF08B5FFF7F7FF08BD00F47F43CF
:102770001B0243EA006300F47F0243EA122343EAA8
:102780001060704708B5FFF7F1FF08BD10B50022D3
:1027900007E00478437843EA042302301A440239FC
:1027A00089B20129F5D811B1037802EB032290B266
:1027B00000EB1240030C1B0413B183B203EB104077
:1027C00080B2FFF7C9FF10BD08B5FFF7DFFFC043B8
:1027D00080B208BD70B505460026344614E068682E
:1027E0006989FFF7D3FF204484B204EB10446B895E
:1027F00013F0010F07D0C6F10106F6B223029BB217
:10280000C4F307241C432D68002DE8D126B1230210
:102810009BB2C4F307241C43E04380B270BD00BFE9
:1028200038B50546104B1C680CE0204602F024FB2E
:1028300038B129686368A2684B40134201D1204631
:1028400038BD2468002CF0D1084B186810B102F094
:1028500013FB28B906482968FDF7B0FE002038BDF3
:10286000024B186838BD00BF7460002078600020FB
:1028700014C900082DE9F04383B044684948FDF7C6
:10288000ABFE494D2846FDF7A7FE2088FFF76AFFFB
:1028900080462088FFF766FF07462088FFF762FF23
:1028A00006466088FFF75EFF00904048C8F30F318E
:1028B000C7F30322F3B2FDF781FE2846FDF78CFE35
:1028C000A088FFF74FFF8146E088FFF74BFF804667
:1028D000E088FFF747FF0746E088FFF743FF06461B
:1028E000E088FFF73FFFC6F340360096C0F30C00C8
:1028F00001902F484946C8F3CF32C7F38033FDF724
:102900005DFE2846FDF768FE2089FFF72BFF07468E
:102910002089FFF727FF06466089FFF723FF03465C
:102920002448C7F30F21F2B2FDF748FE2846FDF711
:1029300053FEE068FFF726FF4FEA1068E068FFF7F4
:1029400021FF070CE068FFF71DFF060AE068FFF7AC
:1029500019FFC0B2009018484146FAB2F3B2FDF731
:102960002DFE2846FDF738FE2069FFF70BFF4FEAE2
:1029700010682069FFF706FF070C2069FFF702FFC8
:10298000060A2069FFF7FEFEC0B200900B484146E0
:10299000FAB2F3B2FDF712FE2846FDF71DFE03B0B2
:1029A000BDE8F08330C900083CC9000860C90008D0
:1029B0009CC90008D8C9000814CA000844CA000805
:1029C0002DE9F04F83B00746884645682888FFF711
:1029D000C9FEC0F30F3004280ED02888FFF7C2FECE
:1029E000C0F30F319B48FDF7E9FD3846FFF742FF82
:1029F000384602F091FA29E12888FFF7B3FEC0F3C8
:102A000003204FEA800A6888FFF7ACFE04467A8903
:102A1000524502D33B89834210D2924503D98E4856
:102A20005146FDF7CBFD3A89A24203D28B4821469D
:102A3000FDF7C4FD384602F06FFA07E1384621463B
:102A400002F064FB44464FF001092E69A3686268F6
:102A500003EA0201009126EA030101918048314610
:102A60003340FDF7ABFD204602F006FAA8B114F1A1
:102A7000040F12D0636883B12A69934205D005F12F
:102A80001000214600F0B0F938B1764894F93210C0
:102A900094F93320FDF792FD0DE0B9F1000F04D059
:102AA000714B1C684FF0000900E02468444500D1D8
:102AB0002468002CC9D1D4B92889FFF753FEC0B2CD
:102AC000112816D1AA44BAF80200FFF74BFE0146BE
:102AD0006648FDF773FDBAF80200FFF743FE44288D
:102AE00009D16348FDF778FD4446002304E0012343
:102AF00002E0012300E00123D3B1EB68C3B105F18B
:102B00000C00414600F070F958B9EE684FF0704083
:102B1000FFF738FE06404FF06040FFF733FE864275
:102B200006D15448FDF758FD384602F0F5F98DE01E
:102B300034B95148FDF750FD384602F0EDF985E013
:102B4000EC8843F6FF70FFF707FE044229D0A888FF
:102B5000FFF708FE81463E896888FFF703FE0446BA
:102B6000B5F806B04FF40050FFF7F6FD8246E8884E
:102B7000FFF7F8FDC0F30C001BEA0A0F14BF012396
:102B800000230093C00001903C484946324623464A
:102B9000FDF714FD384600F08BFA0746002855D0A3
:102BA00045683748FDF718FD3846FFF763FE35489E
:102BB00079893A89FDF702FD334BC3F80080334B26
:102BC0001D603846414602F099FBD0BB2889FFF7CB
:102BD000C9FDC0B2062809D0112802D001280FD1A2
:102BE00009E03846414605F01BFC2AE038464146DC
:102BF00004F0C4F925E038464146FFF7CBFC20E05D
:102C000005F11000414600F0EFF880B92C694FF053
:102C10007040FFF7B7FD04404FF06040FFF7B2FD92
:102C2000844204D07D6038460221FFF789FD384692
:102C300002F072F92889FFF795FDC1B21448FDF73B
:102C4000BDFC0023104A1360104A1360002003B03B
:102C5000BDE8F08F74CA0008A8CA0008F8CA0008C6
:102C600038CB00087CCB000874600020ACCB000897
:102C7000DCCB0008FCCB000824CC000844CC0008C6
:102C8000A4CC0008B0CC00086C600020706000206C
:102C9000D8CC00082DE9F84306460A9D002A54D0F6
:102CA000894698461746142102F0ECF820B13948BD
:102CB000FDF792FCFE2069E074682089FFF752FD61
:102CC00068F31F20FFF748FD2081FFF74BFD00F45C
:102CD0007F409DF824301843FFF73EFD20810FB15F
:102CE0003B6800E0002323619DF8200040F48A4007
:102CF000FFF732FD20803089FFF72EFD6080002332
:102D0000A371E371DFF89880B8F80000FFF724FDA5
:102D1000A080B8F800300133A8F80030B9F1000FF6
:102D200002D0D9F800303BB915F1040F01D06B681F
:102D300000E00023E36004E0B9F1000F00D10023BC
:102D4000E3600023A372E37201E047681037124882
:102D500095F9321095F9332095F83430FDF72EFCB3
:102D60003046FFF787FD2B8D43B13289934205D260
:102D7000304629463A4600F093FA07E00748FDF747
:102D80001DFC6B69284631463A46984740B2BDE87B
:102D9000F88300BFFCCC000830CD000848CD000807
:102DA000A8090020F0B585B007460E4614461D461A
:102DB0001046FFF735FD28B90A482168FDF7FEFBEC
:102DC000FC200CE09DF8282000929DF82C20019218
:102DD00002903846314622462B46FFF75BFF40B251
:102DE00005B0F0BD58CD000803685A1E12F1030F5C
:102DF00013D891F8312002F0020202F0FF009AB1DC
:102E00004A689A420BD089685A400A4209D1C9439C
:102E10000B40994207D000207047012070470020E6
:102E20007047002070470120704700BF08B5034677
:102E3000074A1268824203D10168054A116001E025
:102E400002680A600520194601F03AFE08BD00BF7D
:102E5000AC0900202DE9F0410746884644686368C4
:102E60009A88D2B91B6843600346626853F8081F0A
:102E70005E689D68D868116056609560D060196979
:102E8000116120460121FFF761FC204602F066F93E
:102E90000546204602F040F800E000257C6809E085
:102EA00063681E68204602F059F90544204602F086
:102EB00033F83446002CF3D138464146FFF7B6FFCD
:102EC000034A13885B1B13802846BDE8F08100BFCE
:102ED000B00900202DE9F041054688460026184B30
:102EE0001B680024214620461DE0EA685F6997427E
:102EF00009D19A69D5F810E0724504D1B3F80CE015
:102F0000AA8896450AD0013428B193F81FE0C27F01
:102F1000964502D902E0184600E018461A6802B940
:102F20000B4619461346002BDFD110B1FFF792FF75
:102F30000644464501DA012CD1DC3046BDE8F0817B
:102F4000AC090020F8B507460E464C686088FFF7CC
:102F500009FC05462088FFF705FCC0F30320C0EB01
:102F6000803083002B449DB2E088FFF7FBFBC0F369
:102F70000C00C10070680024047044708470C47038
:102F8000818001EB050E1FFA8EFEA0F806E07D6839
:102F90004FF0010C1CE06B689A8891420BD20560DF
:102FA0003CB1E28891423FD39B889E453CD8266045
:102FB00010E07E600EE0914236D0DD88A94233D326
:102FC00024B1E488A24201D04FF0000C1D681C46D9
:102FD000002DE0D155B92CB12660E28883889A4251
:102FE00002D103E07E6001E04FF0000CBB7F13F0E4
:102FF000010F25D0BCF1000F14D07B685B689B8863
:103000005BB9026806E05368C1889A88914207D18B
:103010001A681846002AF6D104E04FF0000C01E0CF
:103020004FF0000C6046F8BD304602F097F8054AB4
:103030001388181A1080304601F06EFF0020F8BD8A
:103040000020F8BDB009002070B505460E460520E9
:1030500001F01AFD044678B928463146FFF73AFFD9
:10306000B04203DB052001F00FFD044624B90E48F1
:10307000FDF7B2FA002070BD20460021202208F0A2
:1030800052F90323E377094B1A6822601C602A680F
:103090006E68A868E968A260E660206161612A69DB
:1030A000A261204670BD00BF80CD0008AC090020A1
:1030B0002DE9F047804645682888FFF753FBC0F3A9
:1030C0000320052803D06E48FDF786FACFE0E88894
:1030D000FFF748FBC0F30C004FEAC00A6888FFF70F
:1030E00041FB07462888FFF73DFBC0F30320C0EBF8
:1030F000803083001F44BFB2404602F02FF8814663
:10310000604B1B8803440A2B11DD28464946FFF714
:10311000E1FE20B15B4B1B884B440A2B07DD5A486C
:10312000584B19884A460A23FDF748FA9FE0574B47
:103130001C68002614E06269EB689A420ED1A2690D
:103140002B699A420AD1A389A888834206D1FFF746
:1031500009FB01464E48FDF731FA03E02646246894
:10316000002CE8D134B928464946FFF76DFF0446E4
:10317000C0B97CE0E888FFF7F5FAC0F30C0088B925
:10318000E089FFF7EFFAC0F30C0058B12A68D5F8D0
:1031900004E0A868E968A260C4F80CE020616161FD
:1031A0002A69A261374A13889944A2F80090E888F6
:1031B000FFF7D8FA00F4005080B250B9A37F43F073
:1031C0000103A3770AEB070189B2A1833148FDF718
:1031D000F5F920464146FFF7B5FE00283FD0A38B06
:1031E0001433A38363685F683D68234653F8082F50
:1031F000D3F804E09868D9683A60C7F804E0B8608A
:10320000F9601A693A61A08BFFF7A6FA788000236B
:10321000BB71FB71BB72FB7238461421FFF7D4FA05
:103220007881D4F804800AE06F6828466FF01301B3
:1032300001F028FE4046294601F0A0FF3D68002D20
:10324000F2D120463146FFF7F1FD404601F086FFFE
:103250000C4A1388181A10804046BDE8F0870E48C3
:10326000084B1988FDF7AAF90020BDE8F0870B4844
:10327000FDF7B2F9404601F04FFE0020BDE8F087AF
:10328000E4CD0008B009002014CE0008AC090020ED
:1032900050CE000880CE0008ACCE0008C8CE000892
:1032A0002DE9F04F87B002908B4605920D8D0220DC
:1032B0000021024601F072FE019020B94A48FDF754
:1032C0008BF9FF208CE0019A55811581474E26F03D
:1032D00003065660029B5F68344638687968BA68AE
:1032E000FB680FC438692060F088FFF73BFAC0F331
:1032F0000C0900F4005082B20492029B1C89143C19
:10330000A4B2A5F114030393002B00DA0733C3F32F
:10331000CF03009314275DE0039BA342B4BF4FF09B
:10332000000A4FF0010AC9F30C08049B43EA08089D
:10333000BAF1000F01D148F40058BAF1000F03D1DF
:10334000009BDD00ADB200E02546029806F11401B5
:103350002A463B4601F094FF384487B24046FFF7C7
:10336000FBF9F08005F1140080B2FFF7F5F97080E9
:103370000023738130461421FFF726FA7081BAF1D9
:10338000000F05D004F11401019889B201F0BEFECE
:10339000022000210A4601F001FE804690B1019909
:1033A00001F002FFDBF8143058464146059A984771
:1033B000404601F0B1FD641BA4B2009B99441FFA82
:1033C00089F907E00A48FDF707F9019801F0A4FD23
:1033D000FF2005E0002C9FD1019801F09DFD002009
:1033E00040B207B0BDE8F08FE0CE0008B70900207A
:1033F00014CF0008837C8B4202D081740023C374F5
:10340000704700BF30B48469838B5D1C858323447F
:1034100083F8F0108169838B5C1C84830B4483F8F0
:10342000F02030BC704700BF10B48269838B5C1CF5
:103430008483134483F8F0105DF8044B704700BF99
:1034400010B48469838B5A1C82830A0A234483F84C
:10345000F0208269838B5C1C8483134483F8F01012
:103460005DF8044B704700BF10B48469838B5A1C0D
:1034700082830A0E234483F8F0208469838B5A1CCC
:103480008283C1F30742234483F8F0208469838B4D
:103490005A1C8283C1F30722234483F8F0208269F7
:1034A000838B5C1C8483134483F8F0105DF8044B19
:1034B000704700BF0246A8B18169838B581C908376
:1034C0000B44FF2183F8F01006E09169581C9083AB
:1034D0000B44002183F8F010938B432BF5D913F0A4
:1034E000030FF2D1704700BF2DE9F843C668002EE4
:1034F00066D0038AFBB94FF0000969E0342909D18D
:103500003548FDF769F80234A3B25C1CA4B216F882
:10351000038014E0A94204D130482146FDF74EF85B
:1035200056E02F48FDF74AF80134A4B2335D1C443D
:103530000134A4B203E00D4607460024A0463B8AAE
:10354000A34204D906EB0409315DFF29D6D1B8F1B5
:10355000000F38D0B8F1010F06D12248FDF73CF832
:10356000BE686C3680270FE0B8F1020F06D11E4806
:10357000FDF732F8BE682C36402705E01B48FDF702
:103580002BF8BE682C36C02700240FE08D4204D1F2
:1035900017482146FDF712F81AE01648FDF70EF815
:1035A0000134A4B2335D1C440134A4B2BC420DD238
:1035B00006EB0409315DFF29E8D14FF0000907E06F
:1035C0004FF0000904E04FF0000901E04FF000095E
:1035D0004846BDE8F88300BF3CCF000858CF00083C
:1035E00080CF0008A0CF0008B8CF0008D0CF0008D7
:1035F000F0CF00080CD0000810B50446024821782E
:10360000FCF7DCFF207810BD24D0000810B504784A
:1036100043781B0443EA0464837844EA0323C478B0
:103620001C4303482146FCF7C9FF204610BD00BFDC
:103630003CD00008002800F09180F8B50546046AE7
:10364000002C00F08E8000204FF49A71024601F0A9
:10365000A5FC606120B94448FCF7BEFFFF2081E073
:10366000E37C1BB9414A1368013313603F4B19686F
:1036700021603F48FCF7A2FF63695A68A2610123F9
:103680001370A2695370A36906229A70A369002679
:10369000DE70A7692068FFF769F87860A3691E7279
:1036A0005E72A3699E72DE72A3691E735E739E735F
:1036B000DE73A37C0A2B03D0052B01D0042B02D18F
:1036C000A3696A68DA60A26900231374537493745F
:1036D000D374A269137553759375D375A269137664
:1036E00053769376D3760EE0A0691A4695F82A10A1
:1036F000994203D9E91891F82B1000E00021024407
:10370000117701339BB20F2BEED9002306E0A2699B
:103710001A44002182F82C1001339BB23F2BF6D9BA
:10372000002306E0A2691A44002182F86C100133DC
:103730009BB27F2BF6D9A5690E48FFF717F8C5F89D
:10374000EC000023A38305E0A2691A4482F8F0305C
:1037500001339BB2432BF7D9002003E0F62040B29F
:103760007047F72040B2F8BD54D000081000002088
:1037700084D000086353826370B5056A0023EB624E
:103780002B636B6328463321FFF7AEFE18B102307E
:10379000FFF73CFF686428463A21FFF7A5FE20B1F9
:1037A0000230FFF733FFA86402E06B6C5B08AB6488
:1037B00028463B21FFF798FE20B10230FFF726FF95
:1037C000E86401E06B6CEB64AB6813F1100F01D09F
:1037D0001B6900E00023AB6228460121FFF784FE4D
:1037E00028B10230FFF712FFFEF7C0FFE86228465B
:1037F0000321FFF779FE28B10230FFF707FFFEF73C
:10380000B5FF286328461C21FFF76EFE28B1023061
:10381000FFF7FCFEFEF7AAFF686328460621FFF7C4
:1038200063FE0646D0B10130FFF7E6FEC0F3870025
:10383000A863022801D90223AB6300240BE006EB46
:1038400084000230FFF7E2FEFEF790FF05EB8403F1
:10385000D8630134E4B2AB6B9C42F0D370BD00BFBF
:1038600050B110B5046A34B1606908B101F054FB7D
:1038700000236361A36110BD704700BF70B582B0C3
:103880000646046A2A48FCF7A7FE20460421FFF7F3
:10389000B1FD3046FFF7CEFE054640BB2046352140
:1038A0000122FFF7AFFD20460321FFF7BDFD2046B3
:1038B00039210222FFF7A6FD2046318DFFF7C0FD1A
:1038C0002046FFF7F7FDA18BF031606989B201F066
:1038D0001DFC606861690096164A432304F068FC89
:1038E0003046FFF7BDFF1448FCF776FE02E01348B0
:1038F000FCF772FEE37C0133DBB2E374092B06D8DC
:10390000C3EB431203EB8203D90089B201E042F218
:10391000107101F2F3130A4A82FB0302DB17C3EBB7
:103920006213E3830748FCF749FE284602B070BDE6
:103930009CD0000878CD0008ACD00008C4D00008A6
:10394000D34D6210F4D0000838B50446056A084823
:10395000FCF742FEAB7C012B03D00A2B01D0052BD8
:1039600005D10448FCF738FE2046FFF787FF38BD35
:1039700024D1000838D1000870B582B00646046A28
:103980003C48FCF729FE3C4B1B68A36220460621FD
:10399000FFF730FD3046FFF74DFE0546002849D1C0
:1039A0003648FCF719FE204635210122FFF72AFD93
:1039B00020460121FFF738FD204639210222FFF77A
:1039C00021FD2046318DFFF73BFD204637210422A3
:1039D000FFF718FD20460121FFF726FD20460321B1
:1039E000FFF722FD20461C21FFF71EFD2046062181
:1039F000FFF71AFD2046FFF75DFD2148FCF7ECFDBF
:103A0000A18BF031606989B201F080FB1D48FCF7A1
:103A1000E3FD6068616900961B4A432304F0C8FB1C
:103A20001A48FCF7D9FD3046FFF71AFF1848FCF793
:103A3000D3FD02E01748FCF7CFFDE37C0133DBB296
:103A4000E374052B04D84FF47A71994089B201E0F0
:103A50004EF6602101F2F3130F4A82FB0302DB17DB
:103A6000C3EB6213E3830D48FCF7A8FD284602B0C0
:103A700070BD00BF58D100087CCD000868D1000897
:103A800088D10008A4D1000878CD0008ECD1000846
:103A90000CD2000828D20008D34D621058D200087A
:103AA00070B582B00546046A90F8341090F932205F
:103AB00090F93330009141482946FCF77FFD2046BC
:103AC0000121FFF797FC2846FFF7B4FD06460028C2
:103AD00055D1204635210122FFF794FC20460321D1
:103AE000FFF7A2FC204639210222FFF78BFC20467B
:103AF000298DFFF7A5FC204632210422FFF782FC26
:103B0000A06AFEF73FFE01462046FFF7ADFC2046C7
:103B100036210422FFF776FC606AFEF733FE014689
:103B20002046FFF7A1FC204637210422FFF76AFC5C
:103B300020460121FFF778FC20460321FFF774FCA3
:103B400020461C21FFF770FC20460621FFF76CFC85
:103B50002046FFF7AFFCA18BF031606989B201F01C
:103B6000D5FA606861690095154A432304F020FB8B
:103B70002846FFF775FE1348FCF72EFD02E01248B9
:103B8000FCF72AFDE37C0133DBB2E374052B04D898
:103B90004FF47A71994089B201E04EF6602101F24A
:103BA000F3130A4A82FB0302DB17C3EB6213E383BE
:103BB0000748FCF703FD304602B070BD88D200080C
:103BC00078CD0008A8D20008C0D20008D34D6210FA
:103BD000F0D2000870B582B00446056A2846362146
:103BE000FFF782FC064694F8341094F9322094F9D9
:103BF000333000910F482146FCF7E0FCBEB1B01C09
:103C0000FFF704FDFEF7B2FD014668620A48FCF7C3
:103C1000D5FCAB6813F1100F01D0196900E0002149
:103C2000A9620648FCF7CAFC2046FFF739FF02B03C
:103C300070BD00BF20D3000848D300086CD3000833
:103C400070B582B00646046A3148FCF7C5FC2046D0
:103C50000321FFF7CFFB3046FFF7ECFC0546A8BB7E
:103C6000204635210122FFF7CDFB20460321FFF737
:103C7000DBFB204639210222FFF7C4FB20464FF42C
:103C80001071FFF7DDFB204632210422FFF7BAFB5B
:103C9000A06AFEF777FD01462046FFF7E5FB2046C8
:103CA000FFF708FCA18BF031606989B201F02EFAB0
:103CB000606861690096174A432304F079FA304638
:103CC000FFF7CEFD1448FCF787FC02E01348FCF731
:103CD00083FCE37C0133DBB2E374092B06D8C3EB2E
:103CE000431203EB8203D90089B201E042F2107162
:103CF00001F2F3130A4A82FB0302DB17C3EB6213E0
:103D0000E3830848FCF75AFC284602B070BD00BFA8
:103D100094D3000878CD0008A4D30008BCD30008D1
:103D2000D34D6210ECD3000870B582B00546046A2A
:103D30002348FCF751FC20460C21FFF75BFB28468B
:103D4000FFF778FC064658BB204635210122FFF7D5
:103D500059FB20460421FFF767FB2046322104224D
:103D6000FFF750FBA06AFEF70DFD01462046FFF766
:103D70007BFB2046FFF79EFBA18BF031606989B287
:103D800001F0C4F96068616900950E4A432304F0AC
:103D90000FFA2846FFF764FD0B48FCF71DFC02E014
:103DA0000A48FCF719FCE37C0133E3741423E38332
:103DB000074842F21071FCF701FC304602B070BDBA
:103DC0001CD4000878CD00082CD4000848D4000882
:103DD00078D4000838B50546046A1048294695F994
:103DE000322095F93330FCF7E9FB20460821FFF734
:103DF00001FB284604F128010022FEF72FF810B13C
:103E00000748FCF7E9FBE37C0133E3740123E38318
:103E100004484FF4FA71FCF7D1FB38BDA8D4000870
:103E2000C4D40008ECD40008002800F0A98070B5C4
:103E300084B00546046A002C00F0A08090F834108D
:103E400090F9322090F9333000914E482946FCF722
:103E5000B5FBA16CB1F1FF3F1AD04B48FCF7AEFBAC
:103E6000A26C02F11E034949A1FB03135B09B3F5E0
:103E7000803F01D34FF6FF739BB223840BB901231C
:103E8000238443484FF47A7101FB02F1FCF796FB5F
:103E9000E16CB1F1FF3F1AD03E48FCF78FFBE26CBA
:103EA00002F11E033949A1FB03135B09B3F5803FFF
:103EB00001D34FF6FF739BB263840BB90123638474
:103EC00033484FF47A7101FB02F1FCF777FB14F1F0
:103ED0002C0F01D0E06A00E000200390B8B9FEF793
:103EE00051FC000E10F0800F05D14FF07F40FEF71F
:103EF0003DFC03900BE0BF2805D96FF0FF00FEF7F3
:103F000035FC039003E02448FEF730FC039014F1E5
:103F1000300F01D0236B00E0002302934BB9A26A5B
:103F2000039B134002930120FEF720FC029B1843E1
:103F300002902646194856F8281FFCF73FFB2846F2
:103F4000314600F0C9FD04AE154856F8041DFCF7D3
:103F500035FB2846314600F051FE04AE114856F8B4
:103F6000081DFCF72BFB2846314600F019FE2846B9
:103F700000F066FF20460A21FFF73CFA04B070BD4E
:103F8000704700BF1CD500083CD500088988888888
:103F900064D5000890D500080000FFFFB8D50008E0
:103FA000D4D50008F0D5000810B50446806818B1D3
:103FB00000F040FC0023A360E06820B100F03AFC70
:103FC0000023E36023820248FCF706FB10BD00BF1C
:103FD0000CD6000800283DD038B504460D46FFF742
:103FE000E3FF2889F0280DD9F03880B2208200F054
:103FF000B5FCE06030B91B48FCF7EEFA00232382E1
:10400000FF202DE0F02000F0A9FC0146A06058B987
:104010001548FCF7E1FAE068F8B100F00BFC00236A
:10402000E3602382FF201BE02846F022002301F0FA
:1040300027F90E48F021FCF7C1FAE16879B128466A
:10404000228AF02301F01CF90948218AFCF7B6FA0C
:10405000002005E0F62040B27047FF2000E000207D
:1040600040B238BD28D6000860D6000898D60008AF
:10407000D4D6000870B582B00446066A90F83410B1
:1040800090F9322090F9333000910E482146FCF728
:1040900095FA204600F0E6FE0B4D2046294600F03A
:1040A0001BFD2046294600F07BFD2046294600F0F6
:1040B000A5FD30460C21FFF79DF92046FFF75CFC7B
:1040C00002B070BD14D700087CCD00082DE9F04F78
:1040D00085B0044616469846076A55681868FEF784
:1040E00051FB4FEA106BD8F80000FEF74BFB4FEA8C
:1040F000104AD8F80000FEF745FB4FEA1029D8F81F
:104100000000FEF73FFB5FFA89F30093C0B2019015
:10411000BDF8383002934F4831465A465FFA8AF369
:10412000FCF74CFA4C487189FCF748FA4B48318946
:10413000FCF744FA73892B2B03D84948FCF74CFA57
:104140007EE02978022913D04648FCF737FA77E059
:104150000B46621892F82B206818007F824204D028
:1041600000904148FCF72AFA6AE00131C9B200E048
:10417000002194F82A308B42EAD86868FEF702FBE7
:104180003B68984208D06868FEF7FCFA0146374859
:104190003A68FCF713FA53E038463146FFF71AFF46
:1041A00018B13348FCF718FA4AE03248FCF714FA21
:1041B00038463521FFF798F918B92F48FCF70CFA63
:1041C0003EE00230FFF718FA052818D12B48FCF71B
:1041D00003FABB7C012B08D12046FFF7CDFA002360
:1041E000FB832046FFF7F6FD2AE0033BDBB2022B00
:1041F00026D80023FB832046FFF716FE20E0062882
:1042000011D1BB7C032B05D0012B03D0042B01D093
:10421000052B08D11A48FCF7DFF90023FB83204661
:10422000FFF728FF0CE002280AD1BB7C062B07D140
:104230001448FCF7D1F90023FB832046FFF7CAFCA2
:104240003846FFF7B1FE304600F066FE05B0BDE827
:10425000F08F00BF38D7000878D700088CD7000847
:10426000A4D70008C4D70008ECD7000828D8000855
:1042700064D800089CD80008C0D80008ECD8000812
:1042800000D9000814D90008D0B138B504460D464D
:104290000C48FCF7A1F9236A8BB19B7C082B0ED14B
:1042A00009482968FCF78AF92A68236A9B6A9A42B6
:1042B00005D10648FCF790F92046FFF735FD38BDDB
:1042C000704700BF18DA00082CDA000860DA00082E
:1042D00070B582B00646046A2B48FCF77DF920468B
:1042E0000521FFF787F83046FFF7A4F9054648BBDC
:1042F000204635210122FFF785F820460321FFF7EC
:1043000093F8204639210222FFF77CF82046318DB0
:10431000FFF796F82046FFF7CDF8A18BF0316069E2
:1043200089B200F0F3FE60686169009604F124022E
:10433000432303F03DFF3046FFF792FA1348FCF7A2
:104340004BF902E01248FCF747F9E37C0133DBB29A
:10435000E374092B06D8C3EB431203EB8203190164
:1043600089B201E044F6206101F2F313094A82FBAD
:104370000302DB17C3EB6213E3830748FCF71EF964
:10438000284602B070BD00BFA4DA0008B4DA000805
:10439000CCDA0008D34D6210F8DA000838B50446CC
:1043A000056A0848FCF718F9AB7C012B03D00A2BEF
:1043B00001D0052B05D10448FCF70EF92046FFF784
:1043C00087FF38BD28DB00083CDB000810B5124B26
:1043D0001C681248FCF700F91AE0236ABBB15A8C3A
:1043E000511E5984012A06D10D48FCF7F5F82046E4
:1043F000FFF7AAFA0BE0226A138C591E1184012BD5
:1044000005D10848FCF7E8F82046FFF7C7FF246805
:10441000002CE2D110BD00BF746000205CDB0008FE
:1044200070DB000890DB000870B582B00546046AB6
:104430003348FCF7D1F820460D21FEF7DBFF0023BF
:104440006362E362A36263632363E364A3646364FC
:10445000A3632846FFF7EEF8064600BB2046352149
:104460000122FEF7CFFF20460721FEF7DDFF2046A1
:10447000FFF720F8A18BF031606989B200F046FEA9
:1044800060686169009504F12402432303F090FE03
:104490002846FFF7E5F91B48FCF79EF802E01A48AA
:1044A000FCF79AF8E37C0133DBB2E374092B06D8FE
:1044B000C3EB431203EB8203D90089B201E042F25D
:1044C000107101F2F313114A82FB0302DB17C3EBF5
:1044D0006213E3830E48FCF771F8284600F0C2FC33
:1044E0000C4C2846214600F0F7FA2846214600F0F9
:1044F00057FB2846214600F081FB304602B070BDD4
:10450000B0DB0008C0DB0008E4DB0008D34D62101C
:1045100014DC00087CCD000838B50446056A304834
:10452000FCF75AF8AB7C0C2B01D0062B06D12D489A
:10453000FCF752F82046FFF71FFA38BD012B13D1C4
:104540002948FCF749F8EB7C052B03D82046FFF7F8
:10455000A7FA38BD2548FCF73FF82046FFF764FF6F
:104560002046FFF709FA38BD082B0DD12048FCF78B
:1045700033F8EB7C012B03D82046FFF72BFC38BD2A
:104580002046FFF751FC38BD052B06D11948FCF732
:1045900023F82046FFF79CFE38BD042B13D11648A4
:1045A000FCF71AF8EB7C082B03D82046FFF766F9D6
:1045B00038BD1248FCF710F82046FFF735FF2046BB
:1045C000FFF7DAF938BD032B09D1EB7C012B03D8B7
:1045D0002046FFF735FB38BD2046FFF7CDF938BD43
:1045E00044DC000854DC00087CDC0008B0DC000877
:1045F000E4DC000814DD000848DD00087CDD00086C
:1046000010B50C4B1C6812E0226A7AB1D38B012BD7
:1046100002D9013BD38309E0012B07D1013BD383AE
:104620000548FBF7D9FF2046FFF776FF2468002CEA
:10463000EAD110BD74600020A4DD000838B5056A19
:10464000A8B1044690F8313023F0080380F83130E7
:104650000748FBF7C1FF55B1686818B103F088FE41
:1046600000236B60284600F0E5F80023236238BD84
:10467000C8DD000800286CD070B582B00446056A19
:1046800090F8341090F9322090F93330009134488A
:104690002146FBF793FF94F8313023F0080384F8A8
:1046A0003130238DB3F5107F04D22E48FBF794FFF1
:1046B000FF2051E08DB92C48FBF78EFF502000F011
:1046C0004DF9054620B92948FBF786FFFF2043E056
:1046D00020622748FBF772FF06E02648FBF77CFFC5
:1046E000686808B103F044FE28460021502206F015
:1046F0001AFE03F057FE686048B91F48FBF76CFFCD
:10470000284600F097F800232362FF2024E01B4E88
:104710003146442203F0BEFC68683146432203F070
:10472000DDFD68681649224603F01EFE1548FBF7BA
:1047300053FF2046FFF720F920B12046FFF77EFF08
:10474000FF2009E094F8312042F0080284F831207B
:1047500002E0F62040B2704740B202B070BD00BF28
:10476000D4DD0008F4DD000834DE00085CDE00085B
:1047700084DE0008A4DE0008D0DE00087CCD00083E
:10478000CD400008F4DE000810B4164B1B68018809
:104790005A18904211D014797CB9134C2468A24263
:1047A0000BD0124C2468944201D1104A10605A5A1E
:1047B00002805A5A1A44C11A518041885A188242BA
:1047C0000DD014795CB9094C2468844201D1074C9E
:1047D000226004885C5201881944D31A4B805DF82A
:1047E000044B7047B0370020AC370020A8370020BA
:1047F0000B4B23F003030B4A13604FF42051198035
:1048000000225A801A715A1807480260012010715C
:1048100011805180054A1070054A1360704700BF2F
:10482000970F0020B0370020AC370020B4370020AD
:10483000A837002008B518B90E48FBF7CDFE08BD13
:1048400003460D4A1268904203D30C4A1268904204
:1048500003D30B48FBF7C0FE08BD0838002203F85D
:10486000042C084B1B68984201D2064B1860FFF7D6
:104870008BFF08BD20DF0008B0370020AC370020D8
:1048800040DF0008A8370020F8B503314FF6FC736D
:104890000B400B2B00D80C23B3F5205F52D82B4ACA
:1048A0001468A04203D32A4A1268904205D30446F2
:1048B0002848FBF791FE2046F8BDA0F10801091B2E
:1048C00089B230F8085C6A1A083A92B293423BD82F
:1048D0003BD066193779C7B9655B0B4408339BB287
:1048E0001D4A1268B24202D1E2181B4E3260E21831
:1048F00000261671E552518020F8083CE25AB2F5C4
:10490000205F22D014446380F8BD03F11405954262
:104910001BD80B4408339BB2E2180F4D2D68AA42F6
:1049200001D20D4D2A600025157130F8085CE55262
:10493000518020F8083CE25AB2F5205F05D01444BB
:104940006380F8BD0020F8BD0020F8BDB03700201E
:10495000AC3700205CDF0008A8370020002854D0C6
:1049600038B5034603334FF6FC7119400B2900D8C4
:104970000C21B1F5205F4AD8264B1D68264B1B68D9
:104980005B1B9BB237E0E8180279002A32D1EA5A61
:10499000D21A083A0C468A422CD31434A24212D3BB
:1049A0005A18083292B2A91800240C710488AC522B
:1049B0004B80028001230371AB5AB3F5205F04D012
:1049C0002B445A8001E001230371134B1B6898426A
:1049D0000ED105E00F4A12681B8813440E4A13607B
:1049E0000D4B1B681A791AB10C4A12689342F1D127
:1049F000083038BD0388C1F520529342C3DB084814
:104A000009B2FBF7DBFD002038BD00207047002015
:104A100038BD00BFB0370020A8370020AC370020D9
:104A200078DF0008002301E001339BB2082BFBD99B
:104A300030B4114921F00301002518E02A46002373
:104A40000E4840F825300BE00C4850F822400C602E
:104A500040F822100A4830F81200014401339BB29A
:104A6000084830F812009842EED80135ADB2082D52
:104A7000E4D930BC704700BFBB370020CC5B0020BE
:104A800068E00008A4DF0008082811D810B5094B19
:104A900053F820401CB1226843F8202006E003466A
:104AA0000548064A52F82310FBF788FD204610BD42
:104AB00000207047CC5B0020B8DF000844E000080D
:104AC0000B4629B1034A52F82010196042F82030F1
:104AD000704700BFCC5B00202DE9F04385B0054650
:104AE0000E460A6843689A4228D02848FBF774FDAE
:104AF000274B1C680FE022686B689A420AD1E7686E
:104B000024482146FBF75AFD2046012101F0B6F961
:104B10003C4600E0E468002CEDD11F4B1B680BE025
:104B20004BB11A683AB169688A4204D10EB1326851
:104B300000E000221A60DB68002BF1D10EB1306872
:104B400000E00020686095F8328095F83370FDF73A
:104B500019FE4FEA10696868FDF714FE060C6868D4
:104B6000FDF710FE040A6868FDF70CFEF6B2009629
:104B7000E4B20194C0B2029008484FFA88F17AB2C8
:104B80004B46FBF71BFD05B0BDE8F083B4E0000821
:104B90007C600020E4E00008846000200CE1000854
:104BA0002DE9F04385B0044609B1086800E0002013
:104BB000E06094F8328094F83370FDF7E3FD4FEA3B
:104BC0001069E068FDF7DEFD060CE068FDF7DAFD30
:104BD000050AE068FDF7D6FDF6B20096EDB2019544
:104BE000C0B2029004484FFA88F17AB24B46FBF704
:104BF000E5FC05B0BDE8F08348E100082DE9F0438D
:104C000085B0044609B1086800E00020A06094F86F
:104C1000328094F83370FDF7B5FD4FEA1069A06853
:104C2000FDF7B0FD060CA068FDF7ACFD050AA06815
:104C3000FDF7A8FDF6B20096EDB20195C0B2029064
:104C400004484FFA88F17AB24B46FBF7B7FC05B03F
:104C5000BDE8F08384E1000870B5044616461D46A1
:104C6000FFF73AFF20463146FFF7C8FF20462946A6
:104C7000FFF796FF70BD00BF2DE9F04782B00446F4
:104C8000884617461E46002545608560C56080F849
:104C90003150056245620A9DC561DFF874E19EF8F6
:104CA000005005F1010C8EF800C080F834500C9DC6
:104CB0000561FFF7D1FF20460B9B9847002840F085
:104CC00099804E4B1A6822601C604D4894F932104E
:104CD00094F93320FBF772FCB8F1000F06D0D8F836
:104CE0000000FDF74FFD4FEA106A01E04FF0000AA7
:104CF000B8F1000F06D0D8F80000FDF743FDC0F36F
:104D0000074901E04FF00009B8F1000F06D0D8F8CC
:104D10000000FDF737FDC0F3072500E00025B8F1DE
:104D2000000F05D0D8F80000FDF72CFDC0B200E060
:104D300000200090334851464A462B46FBF73EFC84
:104D40003148FBF73BFC2FB13868FDF71BFD4FEAFC
:104D5000106901E04FF000092FB13868FDF712FD2E
:104D6000C0F3074801E04FF000082FB13868FDF7A5
:104D700009FDC0F3072500E0002527B13868FDF7DD
:104D800001FDC0B200E0002000901E4849464246A6
:104D90002B46FBF713FC1D48FBF710FC2EB13068C7
:104DA000FDF7F0FC4FEA106801E04FF000082EB16B
:104DB0003068FDF7E7FCC0F3074700E000272EB19D
:104DC0003068FDF7DFFCC0F3072500E0002526B1C1
:104DD0003068FDF7D7FCC0B200E000200090094821
:104DE00041463A462B46FBF7E9FB0A2006F0A4FAB7
:104DF000204600E0002002B0BDE8F087746000208B
:104E0000C0E1000898C70008E8E10008F4E10008E4
:104E1000F05B002008B5084B186010B190F9321013
:104E200000E0272110B190F9332000E02722034849
:104E3000FBF7C4FB08BD00BF78600020FCE1000860
:104E400008B590F8313013F0010F0AD143F0010397
:104E500080F8313013F0200F03D001460431FCF705
:104E6000DFFF08BD90F8313013F0010F03D023F0BD
:104E7000010380F83130704790F8310000F00100F4
:104E8000704700BF002937D038B504460B460028CC
:104E900034D0002905DA494289B242898A4201D2D6
:104EA0002EE089B2227B65680AB1032A0BD1E91A88
:104EB000616004F11002914210D21548FBF77EFBAD
:104EC0006560012038BD013A92B2012A1AD8002B40
:104ED0001ADA62898A4219D3EA1A626098B2618941
:104EE000014461812289024422810A48294662687C
:104EF000FBF764FB002038BD00207047002038BD60
:104F0000012038BD012038BD012038BD012038BD49
:104F100040E2000888E2000870B520B91B48FBF7A2
:104F20005BFB002070BD044619482146FBF746FB99
:104F3000002526E0E289013A92B2E281E2B92668D0
:104F400014482146FBF73AFB237B032B04D10820AE
:104F50002146FFF7B5FD0BE0013B9BB2012B04D8C6
:104F600007202146FFF7ACFD02E02046FFF762FC78
:104F70000135EDB2344604E007482146FBF71EFB3D
:104F80000024002CD6D1284670BD00BFACE200083A
:104F9000D0E20008E0E20008FCE200082DE9F04160
:104FA00004460F4616465348FBF708FB032C00F255
:104FB0009480DFE804F00402070B002400E01424CE
:104FC000143400E000240E34A4B200E00024032EC8
:104FD00000F28680DFE806F0465F5F020820FFF7F8
:104FE00053FD054644482946FBF7E8FA002D7AD0E0
:104FF0002E7300232B602B19133323F003036B60F4
:105000002F81033424F00304C4F50074BC42A8BF0C
:105010003C46A4B26C810123EB813C1BA8461EE0F8
:105020000820FFF731FD28B92846FFF775FF00205B
:10503000BDE8F0810673002242730260C8F80000E8
:10504000A2B20281B2F5007F28BF4FF40072428104
:1050500000F1100141600121C181A41A8046002C99
:10506000DEDC2EE004F1130020F00300FB1C23F033
:105070000303184480B2FFF771FC0546002835D0C1
:105080000444133424F0030444600781478100235F
:105090000360067315E00720FFF7F6FC054650B9DC
:1050A000012E01D1154900E015491648FBF786FA93
:1050B0000020BDE8F0810023436007814781036041
:1050C00006730123EB8100236B730F4839462A4690
:1050D000FBF774FA2846BDE8F0810020BDE8F081B6
:1050E0000020BDE8F0810020BDE8F0810020BDE88F
:1050F000F08100BF30E3000848E3000828E300081F
:105100002CE3000868E30008A0E3000838B5044673
:105110000D4602898A421FD98A1A06E0691A8DB2A1
:10512000238913FA82F3238124686189A942F5D384
:10513000237B4BB9A94207D063681B1BE9182046A3
:1051400089B2FFF7A1FB044665812581206808B17B
:10515000FFF7E2FE0023236038BD00BF03460020B6
:1051600002E00130C0B21B68002BFAD1704700BFCB
:1051700010B1C3890133C381704700BF98B10346A2
:1051800031B970470C891A8922441A81034600E01C
:1051900010B418680028F5D108891A8902441A81C8
:1051A00019605DF8044B704738B505460C46FFF7AB
:1051B000E5FF2046FFF7DCFF024829462246FBF7C1
:1051C000FDF938BDC0E300082DE9F04107460D4662
:1051D000294839462A46FBF7F1F9002F3FD0002D28
:1051E0003FD03A892B899A423DD34FF0000846467A
:1051F0007B89991B6C89C8EB0402914201DB94B254
:1052000001E09B1B9CB278686968304441442246A7
:1052100006F07EF82644B6B244441FFA84F87B892F
:10522000B34201D13F6800266B89434502D82D68FF
:105230004FF000082DB16A892B899A4201D12B6861
:105240009BB92FB17A893B899A4201D13B6873B9E6
:10525000002DCDD10948FBF7BFF9002008E0F6206A
:1052600006E0F62004E0F62002E0F72000E0F72058
:1052700040B2BDE8F08100BF40E4000854E40008FB
:1052800080B32DE9F84388469146054661B370B373
:1052900081B300273E461DE02BB16989994202D8AF
:1052A0005B1A9BB215E06C89E41AA4B24C4500D994
:1052B0004C46696808EB06001944224606F028F8B7
:1052C0002744BFB22644B6B2C4EB09041FFA84F9DE
:1052D00000232D68B9F1000F01D0002DDCD1384634
:1052E000BDE8F883002070470020BDE8F883002067
:1052F000BDE8F8830020BDE8F88300BF2DE9F8433E
:105300008046D0F80490B9F80800FDF72BFAC7B230
:10531000144B1C6800252E461EE0237CBB4219D18D
:10532000D4F814C0BCF1000F14D0A0692146424645
:1053300009F10C03E04768B14EB1E368F360094B33
:105340001A68E2601C6001254FF0000802E00125A8
:105350004FF000082646E4680DB9002CDDD1284640
:10536000BDE8F883F45B00206FF00400704700BFD5
:10537000174A138801339BB2138013F4004F03D0F4
:105380004FF48052124B1A80124B1B6805E0198BA8
:105390000F4A12889142EBD0DB68002BF7D10E4BFD
:1053A0001B6805E0198B0A4A12889142E0D0DB683D
:1053B000002BF7D1094B1B6805E0198B044A1288B2
:1053C0009142D5D0DB68002BF7D1014B188870478C
:1053D000440000207C600020906000208460002059
:1053E00038B50546037C002B5FD10C4612B9FFF798
:1053F000BFFF02463E4B1B680FE0188B90420BD15B
:10540000002B54D01968002953D0002C53D02068A9
:10541000002852D0814252D0DB68002BEDD1354BB1
:105420001B680FE0198B91420BD1002B49D01968F2
:10543000002948D0002C48D02068002847D081425D
:1054400047D0DB68002BEDD12B4B1B680FE0198B8D
:1054500091420BD1002B3ED0196800293DD0002C81
:105460003DD0206800283CD081423CD0DB68002B36
:10547000EDD1224B1B6807E0198B914203D11868CC
:105480002168884231D0DB68002BF5D114B1236844
:1054900003B12B602A83184B1968E9601D60184816
:1054A0001146FBF78BF8002020E0F3201EE0F520EA
:1054B0001CE0F5201AE0F52018E0F52016E0F520B4
:1054C00014E0F52012E0F52010E0F5200EE0F520C4
:1054D0000CE0F5200AE0F52008E0F52006E0F520D4
:1054E00004E0F52002E0F52000E0F52040B238BDF0
:1054F000846000207C6000208C6000209060002090
:1055000088E4000838B5037C002B40D1012B41D042
:1055100004460320FFF7B8FA0546002839D063692E
:105520004361238B038301230374238943F0020324
:105530000381E37AC372A37A83720CB1236800E01B
:1055400000232B60144B1B68A34203D1DA68124B73
:105550001A600EE0114A136007E0DA68A24202D135
:10556000E268DA6005E00D4B1A600C4B1B68002BFB
:10557000F3D10023E36002202146FFF7A1FA084B94
:10558000EB61084B1A68EA601D60284638BD0020B0
:1055900038BD002038BD00BF8C600020886000202E
:1055A000695300088460002070B4456A048D2A198C
:1055B000C16A038F40F2B456B34200D933460B445C
:1055C000D31A002B02DB4485501A09E06B1A002B1A
:1055D00003DD00224285104602E0491B4185002080
:1055E00070BC704738B504460D46038D0B449BB222
:1055F000038540F66832934200D922852046FFF7A2
:10560000D3FF40F2D923984208DD94F8223043F0CA
:10561000020384F82230204602F038FA238D044831
:1056200029461A46C3F536630833FAF7C7FF38BD73
:10563000A4E4000838B570B10446406828B1FFF70B
:105640006BFC05460023636000E000250420214632
:10565000FFF736FA00E00025284638BD38B50024AB
:1056600005E00568FFF7E6FF2044C4B2284600289D
:10567000F7D1204638BD00BF417470474161704783
:10568000C0F88410704700BFC0F88010704700BF9A
:10569000C0F89010704700BFC1617047C0F88C100F
:1056A00080F83520704700BF037C33B30A2B24D029
:1056B000012B22D010B504461048FAF78DFFE36F96
:1056C0003BB10F48FAF788FFE06FFFF725FC002396
:1056D000E367636F13B10B48FAF77EFFA36F13B153
:1056E0000948FAF779FF606FFFF7B8FFA06FFFF77F
:1056F000B5FF00236367A36710BD7047D8E40008B7
:10570000E8E4000814E5000838E500082DE9F04356
:1057100083B0AA4A136801331360A94B1C6814B9FB
:10572000A848FAF759FF002639E1A748FAF754FFCD
:10573000237C022B08D194F84A30062B04D1A348CD
:10574000FAF74AFF01256BE094F84A300C2B04D19C
:105750009F48FAF741FF012562E094F89C30B3B10D
:10576000D4F898200132C4F89820591E9948415C19
:105770008A4250D30022C4F89820062B02D8013365
:1057800084F89C30204602F005FC002548E0E38EBA
:1057900013F4004F01D10133E386A36F002B3CD0FB
:1057A000E18EB4F8482008B213B2984237DB8A4839
:1057B00009B21A46FAF702FF237C022B0CD0B4F987
:1057C0004420B4F9463003EBE20394F84A208349BD
:1057D0008A5C9340A4F848300023E386B4F85C2048
:1057E000B4F85230934228BF13465B08A4F85430F3
:1057F000228F934202D25200A4F85420218FA4F8A1
:1058000052107748B4F85420FAF7D8FE204602F038
:10581000E7FA002504E0002502E0002500E000256D
:10582000237C062B0AD1226B644B1B689B1A282B06
:1058300004D90135EDB26B48FAF7CEFE238903F0A7
:1058400008039BB2002B47D0237C042B01D0072BED
:1058500044D1226B594B1B689A1AD4F8940000F576
:10586000242303F6B8436049A1FB0313B2EB531F93
:105870001DD96068FCF786FF4FEA10696068FCF785
:1058800081FF4FEA10486068FCF77CFF070A6068F8
:10589000FCF778FFC0B20090544849465FFA88F29E
:1058A000FBB2FAF78BFE0135EDB2012719E094F84F
:1058B0009D104F4B03FB01034B49A1FB0313B2EBBC
:1058C000531F0DD9204602F00FFB94F89D30013391
:1058D00084F89D30002704E0002702E0002700E064
:1058E0000027237C032B0AD1226B344B1B689B1AA5
:1058F000282B04D90135EDB23E48FAF76DFE237C22
:10590000092B0AD1226B2D4B1B689B1AF02B04D953
:105910000135EDB23848FAF75FFE15B32046FFF7C0
:10592000C3FE16B1E368F36002E0E268244B1A603C
:10593000D4F890301BB160696FF0040198474FB103
:10594000A06D616A238B0093238C01932246231D53
:1059500002F0EAF9E56802202146FFF7B1F82C468B
:105960001DE094F834300133DBB284F8343094F81D
:105970003520934211D3002384F834301F48FAF7BE
:105980002BFED4F88C301BB160692146984700E0AB
:10599000002010B9204602F079F82646E468002C71
:1059A0007FF4C3AE164B1D6841E02A6B034B1B68A6
:1059B0009B1AF02B26D8002325E000BF8060002032
:1059C0007C60002060E500087CE50008A0E5000898
:1059D000C8E50008D4EA0008F0E5000878E400080B
:1059E00014E6000838E60008D34D621068E60008A7
:1059F000F8240100B4E60008E0E600080CE700081F
:105A000090600020012383B12846FFF74DFE14B1BA
:105A1000EB68E36002E0EA68074B1A60EE68022078
:105A20002946FFF74DF8354601E02C46ED68002D7C
:105A3000BBD103B0BDE8F08390600020034A10683A
:105A4000034B1B6818441060704700BF140000200F
:105A50008060002010B504460846FCF7E1FE30B136
:105A6000038D23B1283B9BB29C4228BF1C46204695
:105A700010BD00BF08B5034B53F820100248FAF7D9
:105A80009DFD08BD180000204CE7000810B5044635
:105A900010F0010F02D01848FAF790FD14F0020F31
:105AA00002D01648FAF78AFD14F0040F02D0144809
:105AB000FAF784FD14F0080F02D01248FAF77EFDC1
:105AC00014F0100F02D01048FAF778FD14F0200FF0
