:020000040800F2
:10000000B0100020650A0008A58C0008A78C000825
:10001000A98C0008AB8C0008AD8C00080000000023
:10002000000000000000000000000000AF8C00088D
:10003000B18C000800000000B38C0008B58C0008EB
:10004000630A0008630A0008630A0008630A0008DC
:10005000630A0008630A0008630A0008630A0008CC
:10006000630A0008630A0008630A0008630A0008BC
:10007000630A0008630A0008630A0008630A0008AC
:10008000630A0008630A0008630A0008630A00089C
:10009000630A0008630A0008630A0008630A00088C
:1000A000630A0008630A0008630A0008630A00087C
:1000B000630A0008630A0008630A0008630A00086C
:1000C000630A0008630A0008630A0008630A00085C
:1000D000630A0008630A0008630A0008630A00084C
:1000E000B98C0008630A0008630A0008630A000864
:1000F000630A0008630A0008630A0008630A00082C
:10010000630A0008630A0008630A0008630A00081B
:10011000630A0008630A0008630A0008630A00080B
:10012000630A0008630A0008630A0008630A0008FB
:10013000630A0008630A0008630A0008630A0008EB
:10014000630A0008630A0008630A0008630A0008DB
:10015000630A0008630A0008630A0008630A0008CB
:10016000630A0008630A0008630A0008630A0008BB
:10017000630A0008630A0008630A0008630A0008AB
:08018000630A0008630A00088D
:10018800FCBA010800000020B4080020FCBA0108ED
:100198000000001000000010B4100020808E002025
:0801A80000000010000000102F
:1001C000044B1968024609B90349196018680244CA
:1001D0001A607047B4100020808E00204FF0FF306E
:1001E00070474FF400534B60002070470120704768
:1001F000002070470020704710467047C1B208B514
:10020000044800F00BFC0348402100F024FC0028C7
:10021000F9D008BD0048004010B50139034611F877
:10022000012F1C1A12B103F8012BF8E7204610BD6C
:10023000092B70B502F1FF3205460E461C4601D867
:10024000034606E00A23B4FBF3F3FFF7F1FF291896
:1002500008E0002AA3EB0500194603DD03F8016B53
:10026000013AF6E70A22B4FBF2F302FB1343303300
:100270000B70013070BDF8B583EAE374A4EBE3744E
:10028000092C164605460F4602F1FF320AD9002B0B
:100290004FF00A03B4FBF3F3B8BF5B42FFF7EBFF89
:1002A0002A1815E0002BB8BFB21E0138511E091ADA
:1002B0002944002902DD00F8017FF7E7002B22EA3C
:1002C000E27005EB0002BFBF2D232B540132013039
:1002D0000A21B4FBF1F301FB1343303313700130F7
:1002E000F8BDF7B5089C5FEA141E05460F461E468A
:1002F00002F1FF3201D1034605E0CDF800E0FFF73F
:10030000F0FF291808E0002AA3EB0500194603DDD9
:1003100003F8017B013AF6E704F00F03092B01D83B
:10032000303303E00EB1373300E0573301300B7048
:1003300003B0F0BD2DE9F3410E46044608B100219B
:1003400001700025117831B9B5424FF0000371D228
:100350002370284674E0B542F6D2252902D0013236
:10036000217005E092F90110252904D12170023293
:1003700001350134E6E7302916BF501C901C2021BE
:10038000002290F800E05FFA8EFCACF13008B8F182
:10039000090F074600F1010007D802EB82020CEBBF
:1003A0004202303A02F0FF02EBE7A818B04288BFE1
:1003B000721B4FFA8EF088BFD2B269281AD00CDCBB
:1003C00063282FD0642815D0582837D103F10408AA
:1003D0001B6800932046012321E0752811D078285E
:1003E00017D073282AD12046196803F10408FFF7B3
:1003F00013FF0CE003F1040820461B68FFF73BFFE6
:1004000005E003F1040820461B68FFF711FF43468F
:100410000CE003F104081B68009320460023FFF75B
:1004200060FFF4E71A682270043301207A1C044448
:10043000054487E704F8013C681E01E04FF0FF30F7
:1004400002B0BDE8F08110B50C4613466421224687
:10045000BDE81040FFF76EBF084B1B689A689142D9
:1004600010B5044602D0DB68994204D160B2FFF7B0
:10047000C5FE204610BD4FF0FF3010BDA004002087
:1004800070B505460E460446601B14F8013B2BB1BF
:1004900058B23146FFF7E0FF431CF5D170BD0000B4
:1004A000F0B5124BA3B006468E466C4603F1200C05
:1004B0006F4618685968254603C5083363452C46BE
:1004C000F7D118682860714609A8FFF7BCFF6328B8
:1004D00006DD074B1B683846D968FFF7D1FFFEE7FA
:1004E00009A83146FFF7CCFF23B0F0BD08B00008E3
:1004F000A00400200A460349096803468868194693
:10050000FFF7CEBFA00400200FB407B504A951F82F
:10051000040B0191FFF7EEFF03B05DF804EB04B0AC
:1005200070470000024B1B689968FFF7A9BF00BF26
:10053000A004002040F0BF60024B40F40030D860BF
:10054000704700BF00ED00E0C278037810B512B329
:10055000164AD1684278C943C1F30221C1F10404AB
:10056000E4B2A240D4B20F220A4181780A40224369
:1005700003F1604303F561431201D2B283F8002313
:1005800003780122590903F01F0302FA03F3084A12
:1005900042F8213010BD5A09012103F01F03994090
:1005A00002F12003024A42F8231010BD00ED00E0E2
:1005B00000E100E0044B1A6804280CBF42F004027A
:1005C00022F004021A60704710E000E0436823F054
:1005D00040720B6822F4807213430A7943EA0223C3
:1005E0004360CA680B691A438B6810B51A43846864
:1005F000084B234013434A7943EA42038360C36AAA
:1006000023F470020B7D013BDBB242EA0353C36269
:1006100010BD00BFFDF7FFC00023036003714371ED
:100620008360C360036101230375704710B5074CF5
:10063000074B6268134090E806001143826811433B
:10064000C2680A431343636010BD00BF002301402A
:10065000E030FCFF836811B143F0010301E023F0B7
:10066000010383607047092970B50CD9A1F10A0410
:10067000C66804EB44040725A54026EA0505A34007
:100680002B43C36009E0056901EB41060724B44030
:1006900025EA0404B34023430361062A0BD8013A38
:1006A000446B02EB82021F23934024EA0303914030
:1006B0001943416370BD0C2A0BD8073A046B02EB57
:1006C00082021F23934024EA0303914019430163EC
:1006D00070BD0D3AC46A02EB82021F23934024EAE4
:1006E000030391401943C16270BD836843F08043A6
:1006F00083607047C06C80B27047000082790168E7
:10070000037970B5002A29D0194A1568CE433540BF
:100710001560546803F1804303F59E333440546000
:100720001C682143196003689468DD432C40946081
:10073000D1682940D160417910290BBF916801F13E
:100740008042194302F59E3205BF9160D16811685D
:100750000B4316BF0B43D360136070BD03F180439E
:1007600003F59E331A6822EA0101196070BD00BFCB
:10077000003C0140054B1A685B69034004D01042FD
:1007800014BF01200020704718467047003C01400C
:10079000014B5861704700BF003C0140F0B50E6846
:1007A00000220123934003EA060E9E452AD15500FC
:1007B00003230468AB40DB431C4004600C790768EA
:1007C00004FA05FC013C4CEA0707012C076011D82C
:1007D00084684F791C4084608468AF4027438760F9
:1007E000446824EA0E0444608C7947689440A4B2BB
:1007F0003C434460C4682340C360CB79C468AB40C9
:100800002343C3600132102ACBD1F0BD01F00703AE
:10081000C90800EB810010B59B00046A0F219940C4
:1008200024EA01010162016A9A401143016210BD8C
:100830001D4A936803F00C03042B10B503D0082B5A
:1008400003D01A4B18E01A4B16E05168536811F4A4
:10085000800F03F03F03516814BF154A134AB2FBDF
:10086000F3F3114A5268C2F30142C1F38811013215
:100870004B435200B3FBF2F30B4A036093680D49FC
:10088000C3F30313CC5C0368E34043609468C4F390
:1008900082240C5D23FA04F484609268C2F342322D
:1008A0008A5CD340C36010BD003802400024F400CD
:1008B00000127A0000000020044B1A6B09B11043AB
:1008C00001E022EA00001863704700BF00380240D0
:1008D000044B1A6C09B1104301E022EA00001864CD
:1008E000704700BF00380240044B5A6C09B11043F6
:1008F00001E022EA00005864704700BF003802405F
:10090000044B1A6909B1104301E022EA00001861A2
:10091000704700BF0038024001F0030301F0FC0102
:1009200001F1804101F59C3110B59B008C680F22CC
:100930009A4024EA02028A608A68984002438A60E8
:1009400010BD0000014B1860704700BFDC0027425B
:100950007FB5038ACA889BB223F4405313430382B2
:1009600083890E469BB223F4B053098923F00C020D
:10097000B3880B4371890B439BB213438381838AF2
:10098000B2899BB223F440731343838204466846C2
:10099000FFF74EFF1A4B9C4203D003F580639C4245
:1009A00001D1039D00E0029DA38931681BB2002B99
:1009B0004FF0190202FB05F2B4BF4D008D00B2FBEF
:1009C000F5F5A2896426B5FBF6F00001010912B223
:1009D000002A06FB1153ADBF1A01D9003231323261
:1009E000B5BFB1FBF6F2B2FBF6F302F0070203F07B
:1009F0000F03B4BF1043184380B2208104B070BD10
:100A000000100140838919B19BB243F4005303E005
:100A100023F400531B041B0C83817047C1F30801AE
:100A20008180704710B5C1F34214012301F01F010A
:100A3000012C03FA01F301D10C3003E0022C0CBFAE
:100A40001030143012B10268134302E0026822EA47
:100A50000303036010BD0388194214BF0120002066
:100A60007047FEE708B50C4A0C4B0D498B4204D287
:100A700052F8041F43F8041BF7E70A480A494FF0ED
:100A800000028842B8BF40F8042BFADB00F00EF8F1
:100A9000BDE8084008F044B8F8BA0108000000209A
:100AA000B4080020B4100020808E0020344B1A6857
:100AB000002142F001021A6099601A6822F08472E3
:100AC00022F480321A602F4A5A601A6882B022F4E7
:100AD00080221A60D960009101911A6842F4803234
:100AE0001A60274B1A6802F400320192009A013210
:100AF0000092019A1AB9009AB2F5A06FF1D11B6861
:100B000013F4003318BF01230193019B012B05D07F
:100B10001D4B4FF000629A6002B07047184B1B49A2
:100B20001A6C42F080521A640A6842F480420A60E9
:100B30009A689A609A6842F400429A609A6842F40D
:100B4000A0529A60124A5A601A6842F080721A6083
:100B500019680B4A8901FBD50E4B40F205611960FB
:100B6000936823F003039360936843F00203936058
:100B7000034B9B6803F00C03082BF9D1C8E700BFB7
:100B8000003802401030002400ED00E0007000400A
:100B900008544007003C024038B504464CB1256873
:100BA000606803F06FF92146062002F077FF2C46BB
:100BB000F4E738BD2DE9F04F8A4685B00746DFF8E7
:100BC000708140B1594B93F80090142303FB0983C3
:100BD0009A7B022A0AD000254FF00A09544E00954C
:100BE000AC462A4648464B46CB4618E002685B684E
:100BF0009A42F0D191E0B17BA1B94E48CDF80CC03A
:100C0000294602920193FFF77FFC019B029ADDF8CF
:100C10000CC0204601350A2D06F1140633D00A28EF
:100C2000ECB2E8D0B17B012917D137B1D7F800E099
:100C300071688E4501D1404818E03168F47B29B1D4
:100C40006445E7D35FFA85F9A446E3E700998C424F
:100C5000E0D35FFA85FB0094DCE70229DAD167B1C3
:100C6000D7F800E071688E4507D134482946FFF770
:100C70004BFC2E4BE0B21C7053E0F17B914224BF41
:100C8000EBB20A46C6E741B20A2902D11AF0010FB7
:100C900004D00AF0020202F0FF051AB12848FFF75B
:100CA00041FC3DE00A2903D05FFA80F9254805E0C0
:100CB0000A2B06D05FFA83F923484946FFF724FC44
:100CC0001BE04FFA8BF10A2903D05FFA8BF91F481A
:100CD000F4E7B9F10A0F23D05FFA89F9142404FB71
:100CE00009F4494658F804201948FFF70DFC58F854
:100CF0000400FFF751FF48F80450142303FB098256
:100D0000002090730FB13968516003FB09880023FC
:100D100088F80F30054B83F800905FFA89F000E007
:100D2000FF2040B205B0BDE8F08F00BFB810002032
:100D3000BC10002032B0000855B0000883B0000895
:100D4000B0B00008ECB0000813B1000842B10008D0
:100D500082B100082DE9F0410C464D680646062197
:100D60000139C9B2585C68546818575C877100290A
:100D7000F6D14FF4006000F00BFE2146A881044834
:100D8000FFF7C2FBB36930462146BDE8F041184782
:100D9000CBB100082DE9F0470C4688B007463F4824
:100DA00015469846FFF7BEFB206800F0F9FD824625
:100DB000206800F0F5FD8146206800F0F1FD064650
:100DC000206800F0EDFD2B7801936B780293AB78EF
:100DD0000393EB7804932B790593C0B26B79009061
:100DE00006932F48C6F307234FEA1A61C9F3074257
:100DF000FFF78AFB236823B92A48FFF793FBF62005
:100E000047E02046394601F0E7F80028F4D14FF0DA
:100E10007040266800F0C4FD06404FF0604000F0CE
:100E2000BFFD8642E8D020464146FFF7C3FE041EC0
:100E30002EDB1D4E1D48142303FB046302229A730C
:100E40001F612146FFF760FB0623013B1422DBB242
:100E500002FB0462D118E85C0872002BF5D1D37351
:100E600014236343F15889B10A68D1F80480F25021
:100E7000062002F013FE3846414607F12B022B46AE
:100E8000FFF768FF404602F0FDFFE9E7084600E093
:100E9000204640B208B0BDE8F08700BFEEB10008C0
:100EA00001B200084AB20008BC1000208DB2000850
:100EB00038B51848184CFFF735FB0025237814F88F
:100EC000012C0133DBB2022A237003D1EF2B1BD993
:100ED000124904E0012A17D1012B15D910491148F4
:100EE0002A46FFF711FB54F80F2C52B129460E4841
:100EF000FFF70AFB54F80F0CFFF74EFE002344F8EF
:100F00000F3C002304F8013C01350A2D04F11404C0
:100F1000D4D138BDC8B20008CB100020C1B200083F
:100F2000B9B20008D5B20008FAB2000870B505469B
:100F300098B14E684368D6F81A20846853401C4024
:100F40000BD10648FFF7EEFA284606F11A01B21D4A
:100F50002346BDE87040FFF71DBF70BD2DB30008EC
:100F60002DE9FF47884616460546002800F0AA806E
:100F70005389292B05D8118954482A22FFF7C4FA2E
:100F80009DE054680120E78900F002FD874215D0FA
:100F9000608AB4F80E8000F0FEFC0746608A258A5D
:100FA00000F0F9FCC0B20090A38901934146C7F359
:100FB0000F222B464648FFF7A7FA80E040F2046074
:100FC000678A00F0E5FC8742E2D14FF40060278A8F
:100FD00000F0DEFC8742DBD140F60600A78900F076
:100FE000D7FC8742D4D1284604F10E01A14600F077
:100FF00013FB6B6859F81C0F0390D4F8262004F1FA
:101000001607284603A943B19A4206D13A4601235E
:10101000FFF7C0FE4FF0010A05E03A460023FFF754
:10102000B9FE4FF0000AA08A00F0B2FC012809D0F6
:1010300002283DD12748FFF775FA284603A902F098
:101040000DF93CE02448FFF76DFABAF1000F27D004
:101050002248FFF767FA022000F09AFCD9F8003026
:10106000A082C4F826306B68E3616B6A13B11B7908
:1010700003B11B4F0623013BDBB2E218917D82F8DE
:101080002010F95CE15418F80310917518F803105A
:101090009171002BEFD1AB692846314698470EE09D
:1010A0006B680BB90F4800E00F48FFF73BFA06E00A
:1010B000A08A00F06DFC01460C48FFF725FA304687
:1010C00002F0E0FE04B0BDE8F08700BF55B30008B1
:1010D0008AB30008C8B40008FAB3000821B40008B5
:1010E0002CB000085EB400089AB40008EDB4000803
:1010F0002DE9F04707468846924603202A21002220
:101100009946099D02F0F8FE064620B92548FFF7EA
:1011100009FAFF2043E044682348FFF703FABDF8CB
:101120002C0000F035FC7B6AA0820BB11B790BB957
:10113000524600E01D4A0623013BDBB2E11819F8D4
:1011400003008875E85C81F82000D05CE05418F852
:1011500003008871002BEFD1089B1B68E3610A9B99
:101160001B68C4F82630012000F012FCE0814FF427
:10117000006000F00DFC208240F2046000F008FCEA
:10118000608240F6060000F003FCBB69A081314696
:10119000384698470446304602F074FE204640B276
:1011A000BDE8F0871BB5000850B500082CB000085A
:1011B00030B5044685B00A480D46FFF7B3F9221D45
:1011C0000092084A019204F12B0101220392029538
:1011D0002046054A0B46FFF78BFF05B030BD00BF28
:1011E00074B500082FB700082CB000082DE9F041B5
:1011F00080460C4608464146154600F0EDFE20B1FB
:101200004648FFF78FF9F62084E04FF070402668DB
:1012100000F0C6FB06404FF0604000F0C1FB864284
:10122000EED02368002BEBD020460121FFF7C2FC53
:10123000061E08DA3A48FFF775F9002D3AD039480A
:10124000FFF770F936E0384F142303FB06720832BB
:10125000917909B90121917103FB06739B7B012BE5
:1012600000D03DB921464046FFF7A2FF0446002DBD
:1012700050D000E0FF2414237343FA18927B022A13
:101280000AD1294C08334046294608F12B02234451
:10129000BDE8F041FFF75EBD012A3AD12B461A7B2B
:1012A000012A09D11B68002BF9D1284602F0FDFE66
:1012B000A8460CE030462DE003201989002202F0F8
:1012C0001BFE804608B3294602F018FF18B9062015
:1012D00002F0C8FB18B9404602F0D4FD15E0002327
:1012E00080E8080114237343FA582AB113680BB13C
:1012F0001A46FBE7106001E00B4AD0500B48294624
:101300003246FFF701F9002004E009482946FFF7BB
:10131000FBF8204640B2BDE8F08100BF99B5000857
:10132000D8B5000801B60008BC1000201EB60008A1
:101330004EB600082DE9F34104460E4608460E213C
:10134000154602F061FD20B12748FFF7EBF8FE20BB
:1013500045E02846214600F03FFE8046B0BB4FF0F6
:1013600070402F6800F01CFB07404FF0604000F019
:1013700017FB874228681AD101238DF800305E23BD
:101380008DF802308DF8018000F00AFBC0F30640B2
:101390008DF80300286800F003FB000A8DF80400B4
:1013A000286800F0FDFA6B468DF805000FE06368D1
:1013B000A2684340134203D0E3687BB104F10C05FB
:1013C000204629463246FFF711FF08E0074B20462A
:1013D000314604F12B02FFF7BDFC00E0FC2040B2D7
:1013E00002B0BDE8F08100BF9AB600082CB000083A
:1013F0002DE9F04F446893B0A3781093E3780B93F2
:1014000063790C93237A22790D938946637A217844
:1014100011910F920E938046A089657894F806B0DA
:1014200094F807A0A77AE67A00F0B2FA0B9B009333
:101430000C9B02930D9B0F9A05930E9B01920693B2
:1014400009901199109BCDF80CB02A46CDF810A048
:10145000079708961448FFF757F8A08900F098FA04
:10146000B0F5006F0AD040F60603984215D1484601
:1014700009F12B014246FFF773FD11E04846414652
:10148000FFF754FD40466FF00D0102F0BDFC20B99E
:101490004046494600F0A6FB02E0404602F0F2FC5E
:1014A000002013B0BDE8F08FCDB6000810B5446A37
:1014B000012323710023637190F82E3090F83020BF
:1014C00090F82F101B0443EA026390F82D200B4381
:1014D00043EA0222436A03B15B7A0A211344B3FB55
:1014E000F1F201FB1233E380637A8B4284BF4FF445
:1014F0001673E38010BD00001FB5436A009300F12E
:101500002B010293054A019201230393044A0B46DF
:10151000FFF7EEFD05B05DF804FB00BF2FB7000834
:101520002CB0000873B50446456A02F067FC10B1A0
:10153000204602F05AFC002694F8341000916660B0
:10154000A660E66094F9322094F933302A482146A7
:10155000FEF7DAFFADB92948FEF7E4FF0A2002F0F2
:10156000FBF9054620B92648FEF7DCFFFF2040E0E6
:1015700031460A2208F066F865622248FEF7C4FF89
:1015800008E02E71EE806E7128463146042208F084
:1015900059F82E7294F8302094F82F301A4843EA04
:1015A0000223184400F0FAF900F0FAF9636A5B7A52
:1015B000184480B240F02940144B40F47E00984219
:1015C00002D800F57E4004E0114B984288BFA0F598
:1015D0007E4000F0E3F9636A28600246597A0D48BC
:1015E000FEF792FF6B7A013320466B72FFF75EFFC6
:1015F000002040B202B070BD43B7000863B70008D6
:101600008EB70008B8B700080001FEA9FF00FEA9C8
:10161000FFFEFEA9D9B7000837B504462D480D4690
:10162000FEF780FF636A002B51D01A79002A4ED052
:1016300094F82B108DF8001094F82C108DF80110F0
:1016400094F82D108DF8021094F82E108DF80310D8
:1016500094F82F108DF80410012A94F830108DF8AA
:101660000510A869D5F80E101A6802D09B88022BC5
:101670000CD1914208D0904229D1684605F1080169
:10168000062207F013FF10B313480FE091421ED15A
:10169000684605F10801062207F008FFB8B10F48B7
:1016A000FEF740FF636A1B7A43B10D48FEF73AFF2D
:1016B000204603B0BDE83040FFF734BF0948FEF7CD
:1016C00031FF2046FFF718FF636A64221A7203B0E5
:1016D00030BD00BFA0B80008B3B80008DFB80008EC
:1016E00013B9000866B900082DE9F04F804685B0AF
:1016F0008A46914601202421002202F0FDFB064685
:1017000028B9404805B0BDE8F04FFEF70BBFD8F848
:1017100000403D48FEF7F8FE14F10C0714D0E068D5
:1017200000F03EF9010E0391E06800F039F9C0F3D2
:10173000074BE06800F034F9C0F30725E06800F0DB
:101740002FF90399C0B203E03D46BB4639463846FF
:101750002B4600905A462D48FEF7D6FE2C48FEF741
:10176000D3FE14F1100514D0206900F019F9010E10
:101770000391206900F014F9C0F3074B206900F0D1
:101780000FF9C0F30725206900F00AF90399C0B2E8
:1017900002E0AB46294628465A462B4600901B4895
:1017A000FEF7B2FE0A2007F09BFF7468002384F85E
:1017B00000A084F8019023716371A371E3717268D2
:1017C000D8F80030083203F11C0153F8040B42F83A
:1017D000040B8B42F9D100257189A570E570204674
:1017E00000F004F9012360802946019300953046FA
:1017F0003A46FF2300F0CEFB304605B0BDE8F04F7F
:1018000002F040BBA5B90008E2B90008FBB9000826
:101810000BBA00082DE9F04F4568044687B02888C8
:10182000884600F0B8F8C0F303208600C6F100092E
:101830004946204602F0E8FA218908B9032901D86F
:1018400046487FE0636819785A7808297DD1AA460E
:101850004FF070405AF8107F00F0A2F805904FF05A
:10186000604000F09DF841468346504600F0B4FBCE
:10187000059B10B91F405F4501D1394821E0394827
:10188000FEF750FE2389072B01D8374819E0204680
:1018900000F0B2F808B1354813E020462221B6B274
:1018A00002F0B2FA00B32046314602F0ADFA024629
:1018B00000284DD10220218902F01EFB074618B9ED
:1018C0002B48FEF72FFE43E0214602F017FC0028CC
:1018D0003ED1384649467D6802F096FAC0BB2046A4
:1018E00002F0D0FA3C4605E020466FF0210102F0FC
:1018F0008BFA68BB6368EA682969E96000272A6196
:101900001F709F70DF70288900F045F860F0FF00BD
:1019100080B200F03DF8AF722881EF722046314668
:1019200002F072FA024698B901230090019305F182
:101930000C01CDF808802046FF2300F0A7FA0146ED
:1019400030B10C48FEF7E0FD02E00B48FEF7DCFD8D
:10195000204607B0BDE8F04F02F094BA10BA000874
:101960003DBA000875BA000886BA0008A9BA00088E
:10197000DCBA000803BB000834BB00080A46043088
:101980000321FFF7B1BE0A4604300B21FFF7ACBEBE
:1019900040BA80B2704740BA80B2704700BA704710
:1019A000FFF7FCBFF0B54E0800EB4604431C0334C0
:1019B00000220233A34207D013F8037C13F8025C21
:1019C00045EA07252A44F4E7CB0744BF10F8163050
:1019D00002EB032293B203EB1240030C18BF13FA7D
:1019E00080F080B2BDE8F040FFF7D2BF08B5FFF746
:1019F000D9FFC04380B208BD70B5002506462C460D
:101A0000AEB170687189FFF7CDFF738936682044E5
:101A100084B2DB0704EB104441BF2302C5F101058A
:101A20009BB2C4F3072444BFEDB21C43E8E725B1E1
:101A300023029BB2C4F307241C43E04380B270BD71
:101A400038B5104B1C6805465CB1204602F0D6F94B
:101A500028B12A6863685340A268134210D02468F2
:101A6000F2E7094C206828B929680848FEF74CFDC0
:101A7000002038BD02F0C2F90028F5D0206838BD3A
:101A8000204638BD786800207C68002065BB0008CF
:101A90002DE9F7434C4D44684C48FEF743FD28467A
:101AA000FEF740FD2088FFF776FF80462088FFF78D
:101AB00072FF07462088FFF76EFF06466088FFF733
:101AC0006AFFC8F30F31C7F30322F3B20090404816
:101AD000FEF71AFD2846FEF725FDA088FFF75BFFFD
:101AE0008146E088FFF757FF8046E088FFF753FF05
:101AF0000746E088FFF74FFF0646E088FFF74BFFF9
:101B0000C6F34036C0F30C004946C8F3CF32C7F3E2
:101B10008033009601902F48FEF7F6FC2846FEF72A
:101B200001FD2089FFF737FF07462089FFF733FFC4
:101B300006466089FFF72FFFC7F30F210346F2B275
:101B40002548FEF7E1FC2846FEF7ECFCE068FFF7CD
:101B500027FF8046E068FFF723FF0746E068FFF7AE
:101B60001FFF0646E068FFF71BFFC0B24FEA18618F
:101B7000C7F30742C6F3072300901848FEF7C4FCDA
:101B80002846FEF7CFFC2069FFF70AFF8046206950
:101B9000FFF706FF07462069FFF702FF06462069A8
:101BA000FFF7FEFEC0B200904FEA1861C7F307428C
:101BB000C6F307230A48FEF7A7FC284603B0BDE892
:101BC000F043FEF7AFBC00BF8CBB000881BB000830
:101BD000AEBB0008E7BB000823BC00085EBC0008E1
:101BE0008BBC00082DE9F74F4568044628880F464E
:101BF000FFF7D1FEC0F30F30042828880AD0FFF782
:101C0000CAFEC0F30F319148FEF77EFC2046FFF775
:101C10003FFF67E0FFF7BFFEC0F303204FEA8008F5
:101C20006888FFF7B8FE62899045064603D8238985
:101C3000834204D30BE086484146FEF765FC2289C7
:101C400096424FD931468348FEF75EFC4AE0314662
:101C5000204602F0FDF93E464FF00109B368726874
:101C6000296902EA0300009021EA030001900B4079
:101C70007948FEF749FC304602F0C0F898B1736825
:101C80008BB12A699A4207D196F9321096F933201E
:101C90007248FEF739FC1AE005F11000314600F0F9
:101CA0009BF90028F0D1B9F1000F02D06C4B1E68EF
:101CB00000E03668BE4208BF36684FF00009002ECB
:101CC000CCD12889FFF767FEC0B211280ED0EB688F
:101CD00073B305F10C00394600F07EF9D0B16148CC
:101CE000FEF720FC204602F0CDF8AAE0A844B8F8A0
:101CF0000200FFF750FE01465B48FEF705FCB8F80E
:101D00000200FFF748FE4428E1D15848FEF70AFCDC
:101D10003E460DE04FF07040D5F80C80FFF740FED6
:101D200000EA08084FF06040FFF73AFE8045D6D041
:101D30000EB94F48D4E743F6FF70EE88FFF728FE50
:101D400030422AD0A888FFF726FE81466888B4F87A
:101D50000880FFF720FE06464FF40050B5F806A0B5
:101D6000FFF716FE8346E888FFF715FE1BEA0A0F09
:101D7000C0F30C0014BF01230023C00000930190A6
:101D80004946424633463B48FEF7BEFB204600F03C
:101D9000BFF90446002854D045683748DFF8E8808A
:101DA000364EFEF7BFFB2046FFF772FE61893448CE
:101DB0002289FEF7A9FB20463946C8F80070356035
:101DC00002F028FAC8BB2889FFF7E5FDC0B2062853
:101DD0000DD0112806D001280ED120463946FFF734
:101DE00019FD2AE02046394605F092F825E0204604
:101DF000394603F0BFFB20E005F11000394600F042
:101E0000EBF880B94FF070402F69FFF7C9FD07402C
:101E10004FF06040FFF7C4FD874204D06560204664
:101E20000221FFF7ABFD204602F02CF82889FFF7CE
:101E3000B2FDC1B21348FEF767FB0023C8F80030BB
:101E40003360002003B0BDE8F08F00BFB9BC0008CC
:101E5000EABC000838BD000878BD0008BBBD00081A
:101E60007868002036BE0008E8BD000816BE0008ED
:101E70005CBE000879BE0008D9BE00087468002066
:101E8000E4BE000809BF0008706800202DE9F74F84
:101E90000E9D9DF830809DF834A0074689469B46EC
:101EA0001646002A3FD0142101F0AEFF002860D171
:101EB0007C6801902089FFF76EFD6BF31F20FFF710
:101EC00067FD2081FFF767FD00F47F4040EA0A00CC
:101ED000FFF75EFD32682261208148F48A40FFF7F7
:101EE00057FD20803889DFF8A880FFF751FD019B5E
:101EF0006080A371E371B8F80000FFF749FDB8F8FE
:101F00000030A0800133A8F80030B9F1000F02D0F2
:101F1000D9F8003013B92B1D18BF6B68E36000239C
:101F2000A372E37201E04668103695F8343095F9F3
:101F3000321095F933201348FEF7E6FA3846FFF7DA
:101F4000A7FD2B8D53B13A899A4207D938462946C5
:101F5000324603B0BDE8F04F00F076BA0A48FEF70B
:101F6000D3FA6B6928463946324603B0BDE8F04FD4
:101F700018470648FEF7D6FA6FF0010003B0BDE837
:101F8000F08F00BF5EBF000875BF00082DBF0008BE
:101F900084110020F0B5074685B010460E46144661
:101FA0001D46FFF74DFD28B90A482168FEF7ACFA37
:101FB000FC200CE09DF8283000939DF82C30019314
:101FC00002903146384622462B46FFF75FFF40B26B
:101FD00005B0F0BD85BF00080268531E033314D856
:101FE00091F8313003F0020303F0FF0083B14B6836
:101FF0009A420CD088685340034208D1C34303EA95
:102000000200C31A5842584170470120704700200F
:10201000704700002DE9F041466873689A880446CD
:102020000F46BAB91A68426000F11C0100F10802BB
:1020300052F8040B43F8040B8A42F9D130460121CF
:10204000FFF7A1FC304602F028F80546304601F0C3
:1020500019FF00E0002566685EB173683046D3F86A
:10206000008002F01AF80544304601F00BFF4646A6
:10207000F2E70A4B1A68A24216BF236822683B6047
:102080004FF00500214608BF1A6001F007FD044A21
:1020900013885B1B13802846BDE8F081881100205F
:1020A0008C110020F8B506460F460025174B00247A
:1020B0001B6821462046F3B1D6F80CE05A697245F8
:1020C00009D1D6F810E09A69724504D1B3F80CE052
:1020D000B288964509D0013430B193F81FE0C27F31
:1020E000964598BF184600E018461A68002A18BF9F
:1020F00019461346DFE710B1FFF78CFF0544BD42D8
:1021000001DA012CD2DC2846F8BD00BF881100207E
:102110002DE9F74F446806462088FFF73CFCC0F3E2
:102120000320052801D0BF485DE0E088BE4DFFF7E1
:1021300032FC01906088FFF72EFC83462088FFF771
:102140002AFC8146304601F0A8FF2B8803440A2B65
:1021500007460FDD20463946FFF7A4FF18B12B884C
:102160003B440A2B06DD2988B0483A460A23FEF78D
:10217000CBF91EE1AE4A0023D2F800A000939046AE
:10218000BAF1000F20D0E268DAF81410914216D1AB
:102190002269DAF81810914211D1A288BAF80C001D
:1021A00090420CD1FFF7F7FB0146A248FEF7ACF9CD
:1021B000E088FFF7F0FBC0F30C0048BB16E0CDF859
:1021C00000A0DAF800A0DBE7052001F04BFC824616
:1021D000002840F0FC8020463946FFF763FFB842F4
:1021E00080F2EE809448FEF79DF9E2E0BAF80E0026
:1021F000FFF7D1FBC0F30C0050B122460AF10801F1
:1022000004F1140052F804EB41F804EB8242F9D1D6
:102210002A8817442F80E088FFF7BDFB820416D47C
:10222000019B9AF81E208548C3F30C010BEBC10BF0
:10223000C9F30321C1EB81310BEB810142F00102B3
:1022400089B28AF81E20AAF81C10FEF75DF974689E
:102250006088FFF7A0FB81462088FFF79CFB0746BC
:10226000E088FFF798FBC0F30C00C400C7F3032716
:1022700004EB0900C7EB87377168DAF804308C800B
:1022800000EB87070022B8B20A704A708A70CA70E1
:10229000C8800127002B00F0B480D3F804C0BCF83C
:1022A00004904C4509D20B60AAB1B2F806E0A645ED
:1022B0002DD848452BD816600FE028D0BCF806E092
:1022C000A64524D81AB1D2884A4518BF0027DCF8A1
:1022D00000306246DEE7CAF804609AF81E20D30791
:1022E00040F19880002F00F09580DAF804205468BF
:1022F000A288002A40F08E800A6892B15068C9888E
:102300008288914240F0868002680146F5E73046B7
:1023100001F0C3FE2B88181A2880304601F0B2FD68
:1023200078E0BAF81C2026681432AAF81C2021464E
:102330000AF108020AF11C0052F8047B41F8047B00
:102340008242F9D1BAF81C00FFF722FB002260801C
:10235000A271E271A272E27220461421FFF746FBDD
:102360006081DAF804405EB1776830466FF013019F
:1023700001F04AFD3146204601F09CFE3E68F2E73E
:10238000D8F80020524513BF009B294ADAF8001004
:10239000DAF800200CBF11601A600520514601F0E8
:1023A0007DFB204601F079FE2B88181A28802046F4
:1023B00035E02348FEF7B6F8304601F063FD2DE026
:1023C000052001F04FFB824600283FF40BAF0021AF
:1023D0002022504607F036F903228AF81F20D8F849
:1023E0000020CAF80020C8F800A022460AF108011F
:1023F00004F1140052F804EB41F804EB8242F9D1E5
:1024000006E7002A3FF467AF1660D288A24218BFE1
:10241000002762E70B482988FEF776F8002003B012
:10242000BDE8F08FE5BF00088C11002013C0000844
:10243000881100204DC000087AC000089BC0000829
:10244000C7C00008DCC000082DE9F04F89B0824603
:1024500002200692B1F828908B460246002101F036
:102460004BFD064618B95148FEF75CF837E0504D71
:10247000A0F80A9025F003054560DAF80430A0F8CA
:1024800008902A4603F1100718685968144603C4D7
:102490000833BB422246F7D118682060E888FFF76E
:1024A0007AFAC0F30C0300F40050019383B2049352
:1024B0000822A9F1140393FBF2F39BB2BAF8084087
:1024C0000393DB009BB2143C05931423A4B2029344
:1024D0005FE03848FEF726F8304601F0D3FCFF20D5
:1024E00060E0019BA9F1130CA445C3F30C08049B05
:1024F000D4BF4FF0000C4FF0010C43EA0808BCF1C8
:10250000000F49D1059F48F4005805F114013A46DF
:10251000029BCDF81CC0504601F048FE029B1844B7
:1025200083B240460293FFF733FAE88007F11400C4
:1025300080B2FFF72DFA002368806B8128461421B2
:10254000FFF754FADDF81CC06881BCF1000F05D01C
:1025500004F11401304689B201F07AFD0021022015
:102560000A4601F0C9FC80460028B2D0314601F08D
:10257000B3FDDBF81430069A41465846984740466A
:1025800001F080FC019B039A1344E41B9BB2A4B2AC
:102590000193002CA5D101E02746B6E7304601F0B3
:1025A00071FC204640B209B0BDE8F08FF8C00008C9
:1025B000911100202BC10008837C8B421EBF002399
:1025C0008174C3747047838B30B584695D1C234468
:1025D000858383F8F010838B81695C1C0B448483B2
:1025E00083F8F02030BD838B826910B55C1C1344E6
:1025F000848383F8F01010BD838B826910B55C1C56
:1026000013440A0A848383F8F020838B82695C1C5C
:102610001344848383F8F01010BD838B826910B556
:102620005C1C13440A0E848383F8F020838B826938
:102630005C1C1344C1F30742848383F8F020838B2E
:1026400082695C1C1344C1F30722848383F8F02061
:10265000838B82695C1C1344848383F8F01010BD63
:102660002DE9F843D0F80C8005460E46B8F1000F6E
:1026700001D1002763E0038A002BFAD00024A14691
:102680002B8AA34203D8B9F1000F23D1F1E718F840
:102690000410FF2908EB0407F5D0342909D1294893
:1026A000FDF740FFA31C9BB20334A4B218F80390BB
:1026B000E6E7B14202D1244821463EE02348FDF737
:1026C00023FF631C9BB2023418F8033013FA84F41E
:1026D000A4B2D5E7B9F1010F07D11D48FDF722FFDC
:1026E000AC684FF080086C3411E0B9F1020F07D1EB
:1026F0001848FDF717FFAC684FF040082C3406E08F
:102700001548FDF70FFFAC684FF0C0082C340025CA
:102710000AE01248FDF7F8FE6B1C9BB2E35C023343
:102720001D44ADB24545A4D2615DFF2904EB050708
:102730009FD0B142EDD10A482946FDF7E5FE384663
:10274000BDE8F88353C100086FC1000896C10008B6
:10275000B6C10008CCC10008E3C100081FC20008D0
:1027600003C2000810B5437804781B0443EA0464EC
:10277000C37823438478044843EA04242146FDF7C0
:10278000C3FE204610BD00BF34C20008F8B506469F
:1027900000287DD0046A002C7CD000204FF49A7170
:1027A000024601F0A9FB606120B93C48FDF7BAFE82
:1027B000FF2070E0E27C3A4B12B91A6801321A60CD
:1027C000196821603748FDF79FFE63695A68A26166
:1027D00001231370A2695370A36906229A70A3693A
:1027E0000025DD702068A769FFF7D8F8A369786035
:1027F0001D725D729D72DD721D735D739D73DD735D
:10280000A27C0A2A02D0043A012A01D87268DA604E
:1028100000221A745A749A74DA741A755A759A7571
:10282000DA751A765A769A76DA7696F82A00A369D5
:1028300091B2884288BFB118134402F101028CBFE3
:1028400091F82B100021102A1977EED10022A369EC
:10285000991801320023402A81F82C30F7D1A2695F
:102860001A4401330025802B82F86C50F7D10E48B2
:10287000A669FFF793F82B46C6F8EC00A583A2697A
:102880001A4482F8F0300133442BF8D1002002E0E2
:10289000F62000E0F72040B2F8BD00BF4AC20008B1
:1028A0001000002079C200086353826310B540B164
:1028B000046A34B1606908B101F0E4FA002363618D
:1028C000A36110BD38B50546046A95F9322095F923
:1028D00033300F482946FDF717FE20460821FFF741
:1028E0006BFE284604F128010022FEF77FFC10B1A0
:1028F0000848FDF717FEE37C07480133E374012322
:10290000E3834FF4FA71BDE83840FDF7FDBD00BF29
:1029100091C20008ACC20008D4C200087FB50546C9
:10292000002800F08880046A002C00F0848090F871
:10293000341090F9322090F9333000913F48294605
:10294000FDF7E2FDA16C481C16D03D48FDF7DCFD0B
:10295000A16C3C2201F11E03B3FBF2F24FF6FF73B0
:10296000934228BF134603B9012323844FF47A739B
:1029700034485943FDF7C8FDE16C4A1C16D0324873
:10298000FDF7C2FDE16C3C2201F11E03B3FBF2F244
:102990004FF6FF73934228BF134603B901236384A4
:1029A0004FF47A7327485943FDF7AEFDE06A029071
:1029B00078B9FEF7F5FF000E030602D44FF07F4012
:1029C00004E0BF2894BF21486FF0FF00FEF7E6FF48
:1029D0000290236B03934BB9A36A029A0120134020
:1029E0000393FEF7DBFF039B18430390264618482A
:1029F00056F8281FFDF788FD314604AE284601F041
:102A000057F856F8081D1348FDF77EFD314604AE11
:102A1000284601F0D5F856F8041D0F48FDF774FD5F
:102A20003146284601F09EF8284601F0CFF92046AD
:102A30000A21FFF7C1FD04B070BD00BF01C300084B
:102A40001EC3000845C3000870C300080000FFFF54
:102A500096C30008AFC30008C8C3000810B50446F9
:102A6000806818B100F0C8FE0023A360E06820B1C0
:102A700000F0C2FE0023E36023820248BDE810405C
:102A8000FDF750BDE1C3000890B1838B8269591CEA
:102A900081831344FF2283F8F020838B432B05D8D6
:102AA0008269591C818313440022F4E79A07F7D105
:102AB0007047000073B5046A06462948FDF732FDE9
:102AC00020460421FFF778FD3046FFF75FFE0546FC
:102AD00030BB012220463521FFF775FD204603213A
:102AE000FFF781FD022220463921FFF76CFD318D71
:102AF0002046FFF781FD2046FFF7C6FFA18B6069E6
:102B0000F03189B201F0A4FA00966169154A606853
:102B1000432304F0CDF83046FFF7C8FE124800E02A
:102B20001248FDF7FFFCE37C11480133DBB2092BAF
:102B30009FBFC3EB431103EB8101C90089B288BF7A
:102B400042F21071E3744FF4FA7201F2F31393FB43
:102B5000F2F3E383FDF7D8FC284602B070BD00BF56
:102B6000FBC30008A2BF000809C4000820C4000875
:102B70004DC4000873B5046A06463A48FDF7D2FC16
:102B8000394B1B68A36220460621FFF715FD30462E
:102B9000FFF7FCFD0546002847D13448FDF7C2FC8D
:102BA000012220463521FFF70EFD20460121FFF7C7
:102BB0001AFD022220463921FFF705FD2046318DFE
:102BC000FFF71AFD042220463721FFF7FCFC2046C0
:102BD0000121FFF708FD20460321FFF704FD2046F1
:102BE0001C21FFF700FD06212046FFF7FCFC2046D4
:102BF000FFF74AFF1E48FDF795FCA18B6069F03195
:102C000089B201F025FA1B48FDF78CFC009661693A
:102C1000194A6068432304F04BF81848FDF782FC1A
:102C20003046FFF743FE164800E01648FDF77AFCF1
:102C3000E37C15480133DBB2052B9DBF4FF47A715D
:102C4000994089B24EF66021E3744FF4FA7201F2B2
:102C5000F31393FBF2F3E383FDF756FC284602B02F
:102C600070BD00BF7BC40008A6BF00088BC400086D
:102C7000A9C40008C5C40008A2BF00080AC500080E
:102C800027C5000840C500086FC5000873B5046A71
:102C900090F8341090F9322090F9333000910546C5
:102CA00029463E48FDF730FC20460121FFF784FC11
:102CB0002846FFF76BFD0646002853D10122204627
:102CC0003521FFF780FC20460321FFF78CFC022210
:102CD00020463921FFF777FC2046298DFFF78CFC31
:102CE000042232212046FFF76EFCA06AFEF758FE50
:102CF00001462046FFF791FC042236212046FFF7CB
:102D000062FC606AFEF74CFE01462046FFF785FC38
:102D1000042220463721FFF756FC20460121FFF709
:102D200062FC20460321FFF75EFC20461C21FFF7D2
:102D30005AFC06212046FFF756FC2046FFF7A4FE6A
:102D4000A18B6069F03189B201F082F90095616967
:102D5000134A6068432303F0ABFF2846FFF7A6FD44
:102D6000104800E01048FDF7DDFBE37C0F4801331D
:102D7000DBB2052B9DBF4FF47A71994089B24EF6B4
:102D80006021E3744FF4FA7201F2F31393FBF2F350
:102D9000E383FDF7B9FB304602B070BD9FC5000864
:102DA000A2BF0008BEC50008D6C5000803C60008BB
:102DB00073B5046A06462F48FDF7B4FB204603218D
:102DC000FFF7FAFB3046FFF7E1FC054698BB01220E
:102DD00020463521FFF7F7FB20460321FFF703FCD0
:102DE000022220463921FFF7EEFB20464FF41071F6
:102DF000FFF702FC042232212046FFF7E4FBA06A21
:102E0000FEF7CEFD01462046FFF707FC2046FFF700
:102E10003BFEA18B6069F03189B201F019F900968F
:102E20006169154A6068432303F042FF3046FFF7AB
:102E30003DFD124800E01248FDF774FBE37C1148A9
:102E40000133DBB2092B9FBFC3EB431103EB8101BD
:102E5000C90089B288BF42F21071E3744FF4FA726C
:102E600001F2F31393FBF2F3E383FDF74DFB2846E6
:102E700002B070BD31C60008A2BF00083FC60008FE
:102E800056C6000883C600082DE9F04F984687B063
:102E9000056ABDF8403005930646D8F8000054682E
:102EA0001746FEF77DFD8346D8F80000FEF778FD53
:102EB0008246D8F80000FEF773FD8146D8F800007E
:102EC000FEF76EFD059B0293C9F30721C0B2CAF35A
:102ED00007434FEA1B62009101903946AB48FDF76A
:102EE00013FB7989AA48FDF70FFBAA483989FDF73A
:102EF0000BFB7B892B2B01D8A74872E02178022994
:102F000006D1304604F11B0E10F82A8F002303E08F
:102F1000A248FDF7F9FACAE0DAB242450FD210F83A
:102F2000012F1EF801CF6245194603F10103F3D0CA
:102F3000CDF800C00B469A48FDF7E6FAB7E06068A6
:102F4000FEF72EFD2B68984208D06068FEF728FD3A
:102F50002A6801469348FDF7D7FAA8E02846FFF70C
:102F60007DFD3889F0280BD9F03880B2288200F036
:102F7000F3FC0446E86018B98B48FDF7D3FA0FE07C
:102F8000F02000F0E9FC0446A86058B98748FDF736
:102F9000C9FAE868002800F0938000F02DFCEC608E
:102FA0002C828DE02146F0220023384601F0FEF805
:102FB000F0217F48FDF7A8FAE96841B138462A8A2E
:102FC000F02301F0F3F87B48298AFDF79DFA7A484F
:102FD000FDF7A8FA28463521FFF742FB044618B949
:102FE0007648FDF79FFA62E07548A178FDF78CFA04
:102FF000A378052B40F099807248FDF793FAAB7CDB
:10300000012B40F08980346A0023E3622363636309
:1030100020463321FFF724FB18B10230FFF7A2FB53
:10302000606420463A21FFF71BFB00284AD002309B
:10303000FFF798FBA06420463B21FFF711FB002817
:1030400044D00230FFF78EFBE064A26812F1100357
:1030500018BF1369A36220460121FFF701FB28B1C5
:103060000230FFF77FFBFEF799FCE0622046032168
:10307000FFF7F6FA28B10230FFF774FBFEF78EFC7B
:10308000206320461C21FFF7EBFA28B10230FFF73E
:1030900069FBFEF783FC606320460621FFF7E0FA38
:1030A0008146B0B90023EB833046FFF70BFC28467E
:1030B000FFF7D4FC384607B0BDE8F04F00F0E2BEA1
:1030C00041488EE7636C5B08A364B4E7636CE36418
:1030D000BBE73B4899F80110FDF716FA99F8013063
:1030E0009B08022BA36384BF0223A3634FF0000855
:1030F000A36B08F1010A5FFA88F89845D2D209EB70
:1031000088000230FFF72EFBFEF748FC04EB88082E
:10311000C8F83C00D046EBE7033B022BC7D800239E
:10312000EB833046FFF7FAFBC1E7062B54D1AB7CAB
:10313000DA1E022A01D9012BB9D12448FDF7F2F990
:103140000023EB8396F8341096F9322096F9333049
:1031500000911F48346A3146FDF7D6F9304600F039
:1031600044FE30461B4900F0A3FC3046194900F0EC
:10317000F9FC3046174900F023FD20460C21FFF7EB
:103180001BFA3046FFF7F6FC91E700BFB1C6000816
:10319000F1C6000802C7000817C7000834C70008B6
:1031A0005CC7000898C70008D3C7000809C8000812
:1031B0003EC8000879C8000810CA0008B6C8000850
:1031C000E0C80008F7C80008DAC9000809C9000803
:1031D0001BC90008A6BF0008022B7FF468AFAB7CB8
:1031E000062B7FF464AF1948FDF79CF9346A00237D
:1031F000EB8336212046FFF733FA96F8341000911E
:10320000804696F9322096F9333011483146FDF761
:103210007BF9B8F1000F3FF44AAF08F10200FFF765
:10322000A1FAFEF7BBFB014660620A48FDF76CF9A4
:10323000A368094813F1100118BF1969A162FDF7CD
:1032400063F93046FFF722FD31E700BF3EC90008B1
:103250006AC900088FC90008B3C9000837B50C4611
:10326000054600285AD02E48FDF75CF92B6A002B42
:1032700054D09B7C082B51D12A482168FDF744F992
:103280002B6A22689B6A9A4248D12748FDF74AF97F
:103290002C6A2648FDF746F920460C21FFF78CF9E9
:1032A0002846FFF773FA48BB012220463521FFF775
:1032B0008AF920460421FFF796F90422322120469C
:1032C000FFF781F9A06AFEF76BFB01462046FFF786
:1032D000A4F92046FFF7D8FBA18B6069F03189B2D1
:1032E00000F0B6FE00956169114A6068432303F05F
:1032F000DFFC2846FFF7DAFA0E4800E00E48FDF73B
:1033000011F9E37C0D480133E37442F21071142388
:10331000E38303B0BDE83040FDF7F6B803B030BD3D
:1033200003CB000814CB000846CB00088ACB00086A
:10333000A2BF000899CB0008B3CB0008E1CB00087E
:1033400073B5046A06462948FDF7ECF820460521C6
:10335000FFF732F93046FFF719FA054638BB01226C
:1033600020463521FFF72FF920460321FFF73BF9CF
:10337000022220463921FFF726F9318D2046FFF73A
:103380003BF92046FFF780FBA18B6069F03189B2E1
:1033900000F05EFE00966169606804F12402432338
:1033A00003F086FC3046FFF781FA114800E011482F
:1033B000FDF7B8F8E37C10480133DBB2092B9FBF5F
:1033C000C3EB431103EB8101090189B288BF44F6C5
:1033D0002061E3744FF4FA7201F2F31393FBF2F3FA
:1033E000E383FDF791F8284602B070BD10CC0008C9
:1033F0001DCC000832CC00085ECC000838B5204B4C
:1034000020481C68FDF78EF8002C37D0236A002B6B
:1034100032D05A8C511E012A598414D11A48FDF712
:1034200081F8256A1948FDF77DF8AB7C03F0FB02B3
:10343000012A01D00A2B1FD11548FDF773F8204649
:10344000FFF738FB18E01A8C511E012A198413D19A
:103450001048FDF767F8256A0F48FDF763F8AB7C65
:1034600003F0FB02012A01D00A2B05D10B48FDF71E
:1034700059F82046FFF764FF2468C5E738BD00BF50
:10348000786800208BCC00089DCC0008BBCC0008DD
:10349000CDCC0008ECCC00080ACD00081CCD0008FB
:1034A00073B5046A05463148FDF73CF820460D2106
:1034B000FFF782F800236362E362A362636323631E
:1034C000E364A3646364A3632846FFF75FF90646D9
:1034D000F0B9012220463521FFF775F80721204673
:1034E000FFF781F82046FFF7CFFAA18B6069F03132
:1034F00089B200F0ADFD00956169606804F12402B5
:10350000432303F0D5FB2846FFF7D0F9184800E025
:103510001848FDF707F8E37C17480133DBB2092BA5
:103520009FBFC3EB431103EB8101C90089B288BF80
:1035300042F210714FF4FA72E37401F2F31393FB49
:10354000F2F3E383FCF7E0FF284600F04EFC284648
:103550000A4900F0ADFA2846084900F003FB284666
:10356000064900F02DFB304602B070BD3ACD000890
:1035700049CD00086ACD000898CD0008A6BF000814
:1035800038B5344B1C68002C62D0236A002B5DD008
:10359000DA8B012A02D9013ADA8357E056D10022A8
:1035A000DA832D48FCF7BEFF256A2C48FCF7BAFFEA
:1035B000AB7C0C2B01D0062B03D12948FCF7B2FFC2
:1035C00037E0012B0BD12748FCF7ACFFEB7C052B38
:1035D00003D82046FFF75AFB38E0234824E0082BA5
:1035E0000CD12248FCF79EFFEB7C012B204602D831
:1035F000FFF768F92AE0FFF791F927E0052B06D1DC
:103600001B48FCF78FFF2046FFF79AFE1EE0042BB5
:1036100011D11848FCF786FFEB7C082B03D8204615
:10362000FFF748FA12E01448FCF77CFF2046FFF74A
:1036300037FF204608E0032B08D1EB7C012B204606
:1036400002D8FFF7B5FB01E0FFF794FA24689AE788
:1036500038BD00BF78680020C7CD0008E8CD00085D
:10366000F7CD00081CCE00084FCE000881CE000820
:10367000B1CE0008E2CE000814CF000838B590F8AB
:103680003130056A23F00803044680F831300848D9
:10369000FCF748FF55B1686818B103F0E3FB00235D
:1036A0006B60284600F0A8F80023236238BD00BFF5
:1036B0003BCF000873B50446002863D090F834105F
:1036C00090F93330056A90F9322000912F48214655
:1036D000FCF71AFF94F8313023F0080384F83130F6
:1036E000238DB3F5107F01D2294809E085B9294817
:1036F000FCF718FF502000F02FF9054618B92648AE
:10370000FCF710FF35E020622448FCF7FDFE06E0E0
:103710002348FCF707FF686808B103F0A3FB00210A
:103720005022284605F08EFF03F0B2FB0646686083
:1037300038B91C48FCF7F6FE284600F05DF8266212
:1037400017E01949442203F031FA17496868432207
:1037500003F040FB68681549224603F07FFB1448DC
:10376000FCF7E0FE2046FFF705FA20B12046FFF700
:1037700085FFFF2007E094F8313043F0080384F818
:10378000313000E0F62040B202B070BD47CF0008F3
:1037900065CF0008A5CF0008CCCF0008F2CF000805
:1037A0000FD000083BD00008A6BF0008892E0008F3
:1037B0005ED000080B4B0C4A0C4823F00303136047
:1037C0004FF4205100225A801A715A1802600120C9
:1037D0001980118051801071054A1070054A1360DC
:1037E000704700BF711700208C3F0020883F0020E9
:1037F000903F0020843F0020F0B508B9214808E040
:10380000214B1B68984203D3204A1668B04204D368
:103810001F48BDE8F040FCF785BE002100F8041CFD
:103820001C4930F8085C0C68A0F10802A24203EBC6
:10383000050438BF0A60A2420FD027796FB9B4429D
:103840000BD00E68A64204BF124C22605C5B20F8CD
:10385000084C5C5B1C44D51A658030F8064C1D1979
:1038600095420DD02E795EB90968914204BF094A8C
:10387000156030F8082C1A5330F8082C13445C807B
:10388000F0BD00BF88D000088C3F0020883F00209A
:10389000A8D00008843F002003314FF6FC720A4094
:1038A0000B2AF8B5044603D9B2F5205F01D948E0E8
:1038B0000C22254B1B689C4203D3244909688C4287
:1038C00003D32348FCF72EFE39E0A4F1080034F8B6
:1038D000085CC01A80B2A5F10801091A89B28A42AF
:1038E0002FD82CD05E1937797FB95F5B194D00F165
:1038F00008010A44296892B2B14203EB020108BFF1
:10390000296000250D719F5210E002F114068E42CD
:1039100015D8104E00F108010A44376892B2991880
:10392000B94238BF316000260E719D52488024F89C
:10393000082C995AB1F5205F1CBF5B185A802046AD
:10394000F8BD0020F8BD00BF8C3F0020883F00205C
:10395000C1D00008843F00202DE9F041002852D05A
:1039600003304FF6FC7101400B2903D9B1F5205FFC
:1039700001D947E00C21254C254D27682A68BB1A40
:103980009BB2C1F52050834239DAD01832F803E0F7
:1039900090F804C0BCF1000F2FD1AEF10806F61A62
:1039A0008E422AD301F11408464512D30831194436
:1039B00089B2561886F804C022F801E0738001230A
:1039C00001800371535AB3F5205F04D01A4451802B
:1039D00001E001230371B84202D00830BDE8F08154
:1039E0000C4B29681A6823681D7925B1934202D0CF
:1039F0001B880B44F8E72360EFE77346C1E70648EE
:103A0000FCF782FD0020BDE8F08100BF843F00206C
:103A10008C3F0020883F0020DDD0000870B50D4BA2
:103A20000D4823F0030300210C4C002240F8042F22
:103A300034F811404E0095B2A54207D205681D60CA
:103A4000074D0360755B01322B44F4E7013109290E
:103A5000EAD170BD943F0020A063002006D1000889
:103A6000C0D10008082810B503460FD8084A52F8FC
:103A700020401CB1216842F8201005E0054A0648A4
:103A800052F82310FCF740FD204610BD002010BD69
:103A9000A46300209CD1000818D1000829B1034B71
:103AA00053F820200A6043F820107047A4630020D8
:103AB0002DE9F0430A6843689A4285B004460E46F1
:103AC00024D13068606094F9329094F93380FDF726
:103AD00067FF07466068FDF763FF06466068FDF70D
:103AE0005FFF05466068FDF75BFFC6F30746C5F359
:103AF0000725C0B2029000960195494642463B0E0A
:103B00001348FCF701FD05B0BDE8F0831148FCF750
:103B100009FD114B1D6875B12A686368EF689A4208
:103B200007D129460D48FCF7EFFC2846012101F09A
:103B300095F83D46EFE70A4B1B68002BC1D01A6889
:103B400022B161688A4204BF32681A60DB68F4E718
:103B500008D2000844D200088068002072D2000811
:103B6000886800202DE9F043044685B009B1086853
:103B700000E00846E06094F9329094F93380FDF754
:103B80000FFF0746E068FDF70BFF0646E068FDF70C
:103B900007FF0546E068FDF703FFC6F30746C5F3D8
:103BA0000725C0B2029000960195494642463B0E59
:103BB0000248FCF7A9FC05B0BDE8F08399D20008E3
:103BC0002DE9F043044685B009B1086800E00846D5
:103BD000A06094F9329094F93380FDF7E1FE074636
:103BE000A068FDF7DDFE0646A068FDF7D9FE054694
:103BF000A068FDF7D5FEC6F30746C5F30725C0B29A
:103C0000029000960195494642463B0E0248FCF759
:103C10007BFC05B0BDE8F083D5D2000870B5044642
:103C200016461D46FFF744FF20463146FFF7C8FF02
:103C300020462946BDE87040FFF794BF2DE9F347C1
:103C4000DFF860E10A9FC7619EF8007080F8347069
:103C5000002507F1010C0C9F456004468560C56096
:103C600080F831500562456207611E4689469046DC
:103C70008EF800C0FFF7D2FF20460B9B9847002824
:103C800040F08280424B43481A68226094F9321017
:103C900094F933201C60FCF737FCB9F1000F17D002
:103CA000D9F80000FDF77CFE4FEA106AD9F8000051
:103CB000FDF776FEC0F30747D9F80000FDF770FE68
:103CC000C0F30725D9F80000FDF76AFEC0B203E093
:103CD0004D464F46CA464846009051462E483A4601
:103CE0002B46FCF711FC2D48FCF70EFCB8F1000F39
:103CF00017D0D8F80000FDF753FE4FEA1069D8F846
:103D00000000FDF74DFEC0F30747D8F80000FDF7AF
:103D100047FEC0F30725D8F80000FDF741FEC0B20A
:103D200003E045464746C1464046009049461A488A
:103D30003A462B46FCF7E8FB1948FCF7E5FB9EB139
:103D40003068FDF72DFE4FEA10683068FDF728FE59
:103D5000C0F307473068FDF723FEC0F3072530683E
:103D6000FDF71EFEC0B203E035463746B04630468A
:103D7000009041463A462B460748FCF7C5FB0A200F
:103D800005F0AEFC204600E0284602B0BDE8F08712
:103D9000786800200ED30008FBB9000833D3000870
:103DA0003DD30008C8630020064B186020B190F98D
:103DB000321090F9332001E027210A460248FCF72F
:103DC000A3BB00BF7C68002042D3000890F83130CC
:103DD000DA07014608D443F001029B0680F831203F
:103DE00002D50431FDF7E4B9704790F83130DA07B5
:103DF00044BF23F0010380F83130704790F8310060
:103E000000F001007047000038B504460B46002959
:103E10002FD070B3002905DA4A42418992B291420B
:103E200001D228E08AB2217B656809B103290AD151
:103E3000E91A04F11002914261600ED20F48FCF7BA
:103E400063FB656017E00139012914D8002B12DAF1
:103E5000618991420FD3EA1A62606189228998B21E
:103E60000144024461812281054862682946FCF7C9
:103E70004BFB002038BD012038BD00BF85D30008B2
:103E8000CCD3000870B5044620B91748FCF74AFBAC
:103E9000204670BD15482146FCF736FB0025E28917
:103EA000013A92B2E281CAB9114826682146FCF76C
:103EB0002BFB237B032B01D1082003E0013B012BCB
:103EC00004D807202146FFF7E9FD02E02046FFF76E
:103ED00093FC0135EDB22EB13446E0E705482146AA
:103EE000FCF712FB284670BDEDD300080ED4000885
:103EF0001DD4000839D400082DE9F04104464E488D
:103F00000F461646FCF700FB032C00F29280DFE818
:103F100004F00204070B142500E00025143500E02E
:103F200000250E35ADB200E00025032E00F28180A1
:103F3000DFE806F0475F5F020820FFF793FD0446C5
:103F400021463E48FCF7E0FA002C72D0032323738D
:103F5000002323606319033525F00305C5F50075BB
:103F6000133323F00303BD42A8BF3D466360012322
:103F700065812781E3817D1BA046002D4DDD082052
:103F8000FFF770FD0023064628B92046FFF77AFFA9
:103F90003046BDE8F081032243730360ABB2027385
:103FA000B3F5007F00F11002C8F800000381426001
:103FB00028BF4FF4007301224381C281ED1A80466D
:103FC000DBE705F11300FB1C23F0030320F00300E3
:103FD000184480B2FFF7C0FC044650B305441335C3
:103FE000002325F0030545600781478103600373C3
:103FF00013E00720FFF736FD044640B9104B114986
:104000001148012E18BF1946FCF77EFA0EE0002376
:10401000436007814781036006730123E381002326
:1040200063730A4839462246FCF76EFA2046BDE81B
:10403000F0810020BDE8F08166D400087ED400083D
:1040400062D400088BD100089DD40008D4D40008A5
:1040500038B5038999420D461ED2CA1A43899D423A
:1040600006D9ED1A038913440381ADB20068F5E760
:10407000027B044642B99D4206D04168091A294490
:1040800089B2FFF709FC044620686581258108B1E3
:10409000FFF7F8FE0023236038BD03460022D0B2AC
:1040A00001320BB11B68FAE7704710B1C3890133C5
:1040B000C381704730B568B101B930BD05680C895E
:1040C00025B10289A31803812846F7E70389016017
:1040D0002344038130BD000038B50C460546FFF788
:1040E000E9FF2046FFF7E1FF294622460248BDE8E6
:1040F0003840FCF709BA00BFF2D400082DE9F041BE
:1041000005460C46274829462246FCF7FDF9002DB6
:1041100041D0002C3FD02A8923899A423BD34FF0CB
:10412000000847466B89668968686168C8EB0606BF
:10413000DB1BB342B4BF9EB2B6B2384441443246F0
:1041400005F0E6F937446B89BFB2BB424644638948
:1041500008BF2D681FFA86F808BF0027434503D81B
:1041600024684CB14FF00008628923899A4201D13A
:10417000236893B915B9D5E745B1A0466A892B895B
:104180009A4201D12B6843B9002CCBD10648FCF7E9
:10419000C9F9002002E0F62000E0F72040B2BDE8B7
:1041A000F08100BF6ED5000881D500082DE9F843E5
:1041B00088469146064628B331B300242746B9F114
:1041C000000F24D01EB32BB171898B4202D35B1A2E
:1041D0009BB215E072897168D21A95B24D4528BF1D
:1041E0004D4608EB070019442A462C442F44C5EBE2
:1041F000090505F08DF9A4B2BFB21FFA85F90023B5
:104200003668DCE7BDE8F8830846BDE8F883204659
:10421000BDE8F8832DE9F047D0F80490174E8046AA
:10422000B9F80800FDF7B7FB34685FFA80FA002799
:10423000F4B1237C534512D1656985B1A06921464B
:10424000424609F10C03A84768B157B1E368FB6027
:104250003368E360346001204FF0000803E0002081
:1042600001E00120B846E368274620B91C46DFE795
:104270002046BDE8F0870120BDE8F087CC63002030
:104280006FF004007047000070B5134B134A1968B3
:104290001468134B134A18881568013080B210F463
:1042A000004F18BF4FF480500A4622B1168B864249
:1042B000F3D0D268F9E7224622B1168B8642ECD0C1
:1042C000D268F9E72A4622B1168B8642E5D0D26839
:1042D000F9E7188070BD00BF806800209468002056
:1042E0004400002088680020F8B5037C05460C4691
:1042F000002B50D112B9FFF7C7FF0246284B1B68AD
:1043000073B1198B914209D11868002845D0002C4F
:1043100043D02168002940D088423ED0DB68EFE7D7
:10432000204B1B686BB1198B914208D1186800288B
:1043300033D0002C31D0216879B388422DD0DB688E
:10434000F0E719490F680E463B465BB1198B914265
:1043500006D1186808B304B32168F1B188421CD0B3
:10436000DB68F2E7114B1B6843B1198B914203D113
:1043700021681868884210D0DB68F5E714B123681B
:1043800003B12B602A83EF60094835601146FCF7C2
:10439000BBF8002002E0F32000E0F52040B2F8BDB9
:1043A00088680020806800209068002094680020C1
:1043B000AFD5000838B5037C05460BB1002038BDE9
:1043C0000320FFF74FFB04460028F7D06B694361D9
:1043D0002B8B0383012303742B89154A43F00203BB
:1043E0000381EB7AC372AB7A83722B680360136824
:1043F000AB4201D1EB680BE00E4A136043B1D968C0
:10440000A94203D11360EA68DA6002E00B46F5E7DF
:1044100013600023EB6002202946FFF73FFB064BA9
:10442000E361064B1A681C60E260204638BD00BF9D
:10443000906800208C680020814200088868002075
:1044400070B5C16A068D446A058F731A0246181941
:1044500040F2B4539D4294BF431BC31A002B01DBAF
:10446000568570BD631A002B4FF00000D6BF091BA4
:104470005085518570BD0000038D0B449BB240F602
:104480006832934270B594BF0385028504460D4699
:10449000FFF7D6FF40F2D923984208DD94F8223086
:1044A00043F0020384F82230204602F013F8238DF3
:1044B00004481A46C3F5366329460833BDE8704000
:1044C000FCF722B8CBD5000838B5054668B140687E
:1044D00028B1FFF7D7FC002304466B6000E00446D8
:1044E00004202946FFF7DAFA00E00446204638BDEA
:1044F00038B5002430B10568FFF7E6FF2044C4B2A8
:104500002846F7E7204638BD41747047416170473F
:10451000C0F884107047C0F880107047C0F8901041
:104520007047C1617047C0F88C1080F83520704723
:10453000037C012B10B5044621D90A2B1FD010484B
:10454000FBF7F0FFE36F3BB10E48FBF7EBFFE06FCB
:10455000FFF798FC0023E367636F13B10A48FBF78A
:10456000E1FFA36F13B10948FBF7DCFF606FFFF7B2
:10457000BFFFA06FFFF7BCFF00236367A36710BDF9
:10458000FCD500080AD6000835D6000856D6000823
:104590002DE9F74FA84F3B6801333B60A74B1C68E0
:1045A000984614B9A648FBF7BDFF4FF00009002C50
:1045B00000F02181A348FBF7B5FF237C022B94F880
:1045C0004A3003D1062B01D19F4802E00C2B04D1C5
:1045D0009E48FBF7A7FF012558E094F89C30C3B133
:1045E0009B49D4F898201944013211F8011CC4F8F1
:1045F00098208A4249D3062B4FF0000298BF01331E
:10460000C4F8982098BF84F89C30204602F04CFAF9
:104610003BE0E38E1A045CBF0133E386A36FA3B3D0
:10462000B4F93610B4F9482091422EDB8948FBF7E3
:104630006BFF237C022B0CD0B4F94420B4F9463034
:10464000854903EBE20394F84A208A5C9340A4F87E
:1046500048300023B4F85220E386B4F85C30218F50
:10466000A4F85210934228BF13465B088B42A4F86B
:1046700054303CBF4B00A4F854307848B4F8542070
:10468000FBF742FF204602F033F90025237C062B7E
:1046900009D13B68226B9B1A282B04D9013570483D
:1046A000EDB2FBF73FFF268906F00806B6B2002EF2
:1046B00043D0237C042B01D0072B3DD13B68216BD9
:1046C000591AD4F8943003F5242202F6B8424FF474
:1046D000FA70B2FBF0F291421DD96068FDF760F903
:1046E00083466068FDF75CF982466068FDF758F91B
:1046F00006466068FDF754F9C0B20090C6F3072380
:1047000058484FEA1B61CAF307420135FBF7FCFE2C
:10471000EDB2012611E094F89D20534E06FB0233C2
:10472000B3FBF0F3994207D9204602F063F994F8FD
:104730009D30013384F89D300026237C032B09D162
:104740003B68226B9B1A282B04D901354748EDB2F0
:10475000FBF7E8FE237C092B08D13B68226B9B1AF0
:10476000F02B03D94248FBF7DDFE00E025B32046DD
:10477000FFF7DEFEE368B9F1000F02D0C9F80C3094
:1047800001E0C8F80030D4F890301BB160696FF0D8
:10479000040198474EB1238B0093238C0193A06DA5
:1047A000616A2246231D02F043F821460220E56893
:1047B000FFF774F94C461BE094F8343094F8352038
:1047C0000133DBB29A4284F8343010D884F8345084
:1047D0002848FBF7A7FED4F88C301BB9204601F01F
:1047E00079FE04E06069214698470028F6D0E56824
:1047F000A1462C46DBE6204B1D689846C5B13B68B8
:104800002A6B9B1AF02B03D8EE682C463546F5E749
:104810002846FFF78DFEEB680CB1E36001E0C8F8B5
:10482000003029460220EE68FFF738F92546ECE70C
:1048300003B0BDE8F08F00BF8468002080680020CE
:104840007CD6000898D60008BBD60008E0D6000841
:10485000A0DB000806D70008A2D5000829D7000869
:104860004DD700087BD70008F8240100C4D7000802
:10487000F0D700081CD8000894680020034A044BB5
:104880001868136818441060704700BF14000020B7
:104890008468002010B504460846FDF7D1F830B111
:1048A000038D23B1283B9BB29C4228BF1C46204667
:1048B00010BD00000246034B034853F82210FBF7DB
:1048C00023BE00BF1800002056D8000810B50446CB
:1048D000E00702D51548FBF717FEA10702D51448DB
:1048E000FBF712FE620702D51248FBF70DFE230705
:1048F00002D51148FBF708FEE00602D50F48FBF78A
:1049000003FEA10602D50E48FBF7FEFD620602D5A6
:104910000C48FBF7F9FD230602D50B48FBF7F4FD25
:104920000A20BDE8104004F0DBBE00BF61D80008DB
:1049300066D800086BD8000870D8000875D8000841
:104940007AD800087FD8000884D800082DE9F04FF5
:10495000404D89B004464048FBF7E4FD2846FBF78C
:10496000E1FD2088FDF717F806466088FDF713F88B
:10497000314602463948FBF7C7FD2846FBF7D2FD12
:104980006068FDF70DF801463548FBF7BDFD284688
:10499000FBF7C8FDA068FDF703F801463148FBF7B7
:1049A000B3FD2846FBF7BEFDA089FCF7F4FF079096
:1049B000A089FCF7F0FF8346A089FCF7ECFF824654
:1049C000A089FCF7E8FF8146A089FCF7E4FF804658
:1049D000A089FCF7E0FF0746A089FCF7DCFF06464C
:1049E000E089FCF7D8FFC9F3C00307990093C7F328
:1049F0004007C8F3800306F00106CBF34012C1F371
:104A00000F3101930396CAF30013049002971648DE
:104A1000FBF77AFDA089FCF7BEFF00F03F00FFF72F
:104A200055FF1248FBF77EFD2846FBF77BFD208AE9
:104A3000FCF7B1FF0646608AFCF7ADFF314602463F
:104A40000B48FBF761FD284609B0BDE8F04FFBF7C6
:104A500069BD00BF8CBB000889D8000895D8000844
:104A6000CCD80008F3D800081AD900085AD9000891
:104A700062D90008054B1B680BB1DB68FCE7044BEF
:104A80001B680BB1DB68FCE70120704780680020E1
:104A90009468002003688B4210B50C4602D1CB68A5
:104AA00003600CE0134A136043B1D968A14203D1FB
:104AB0001360E268DA6002E00B46F5E7136000235A
:104AC000E3602046FFF734FD237C0A2B0CD0012B3A
:104AD0000AD094F82230DA0706D543F0020384F8AE
:104AE0002230204601F0F6FC00232374BDE810407C
:104AF000FFF7C0BF8C68002010B504462348FBF7C1
:104B000003FD207CFFF7D6FE237C072B3BD8DFE894
:104B100003F0041A2029293A3A301D4A1368A342A7
:104B200001D1E3680BE01B4A136043B1D968A1428D
:104B300003D11360E268DA6002E00B46F5E7136028
:104B40000023E36009E014482146FFF7A3FF032098
:104B500004E012482146FFF79DFF02202146FEF7A0
:104B60009DFF10E02046012101F048FC60B90523BB
:104B700005E02046012101F041FC28B909232374F6
:104B8000204601F0A7FC002040B210BD08DA000862
:104B9000906800208C6800208868002080680020D1
:104BA00010B50846144632B11189FFF765FC20465E
:104BB000FFF768F904E01BB9BDE81040FFF79CBFA0
:104BC000002010BD38B5194B1C686CB3E36F9BB166
:104BD0001748FBF7A7FCD4F884502DB16069E26F49
:104BE00021460023A84705E028462146E26F2B46D0
:104BF000FFF7D6FF00B9E06794F82230DB0711D544
:104C00000C48FBF78FFC94F8223043F0020384F841
:104C10002230204601F05EFC94F8223023F003039A
:104C200084F82230E468D0E738BD00BF80680020F7
:104C30001FDA00083FDA000808B5FFF7C3FF064A8D
:104C400013780133DBB21370DB0703D5BDE80840EE
:104C5000FFF79EBC08BD00BFD06300202DE9F04FD8
:104C6000037C0A2B85B004468A4608D121461F489A
:104C7000FFF710FF02202146FEF710FF32E0036825
:104C8000876D466A0393B0F818904368B0F82080A7
:104C9000D0F89050D0F814B0154802932146FFF791
:104CA000F9FEA06F08B1FFF723FC606F08B1FFF7B2
:104CB0001FFC02202146FEF7F1FE1DB158466FF0A1
:104CC0000401A847BAF1000F0CD00A48FBF72AFCF0
:104CD000CDF80090CDF804803846314603AA02ABE7
:104CE00001F0A6FD05B0BDE8F08F00BF946800207C
:104CF0008068002058DA0008F8B507460220FEF761
:104D0000B1FE434E0446002849D14248FBF70AFC55
:104D1000414B30681B68224625463BB1196B411A4E
:104D2000914224BF1D460A46DB68F6E73DB129469D
:104D30003A48FBF7E9FB28460121FFF78FFF0220E5
:104D4000FEF790FE044650BB35483946FBF7DCFBC6
:104D5000344BD6F800C01B684FF07F0E2246254624
:104D600073B1587CB84209D8704507D8196BC1EBAC
:104D70000C01914222BF86460A461D46DB68EFE7DA
:104D80003DB129462848FBF7BFFB28460121FFF724
:104D900065FF0220FEF766FE0446002836D000219B
:104DA000A022204604F04EFC4023637441F2D063FD
:104DB000A4F86E3040F6683323856385FF23E372E1
:104DC0004FF4067323870623A4F84830A4F846302E
:104DD0004FF6FF730025E3860123A4F85230A4F8B0
:104DE0007050A572A4F84450FFF748FD3368236360
:104DF0000E4BC4F884300E4B6066A065E064A0667C
:104E000084F83450C4F8943084F89D502046F8BD9E
:104E10008468002071DA000894680020A4DA000891
:104E2000DDDA00088068002014DB0008A14B0008D0
:104E300000DD6D004020FFF75FBF00002DE9F34764
:104E4000A84BA94E1B7813F0100F044600F01082F7
:104E5000036EB0F85C80476E3068A44DA4491A1AFE
:104E6000002A0EDB834203D12A68BA1A002A08DB23
:104E7000D5F800C0674516D10A68B2F80EE0C645FD
:104E800011D90B68D9892B68A4F85C102066636679
:104E900029B194F89C3013B1002384F89C309548D4
:104EA000FBF732FB0AE00968C989414506D08DE865
:104EB0008100E16C90486246FBF726FB2968E06CB4
:104EC0000B1A002B31DC0023A4F86C308B4B1B88B1
:104ED000002B40F0E582636EB4F85C201A4408EBC6
:104EE00007039A4240F0DC82B4F93630002BC0F25E
:104EF000D782884240F0D48294F850300133DBB23C
:104F0000032B84F850300AD9B4F85220238F13446D
:104F10009BB2934240F26581A4F8523061E140F0C7
:104F20006081204601F020FD5BE1A26D8A1A002A13
:104F300000F3D48094F82220B4F94470E16450075F
:104F400041BF22F0040284F82220B4F85420A4F8CF
:104F50005220B4F8462002EBE702A4F84820B4F847
:104F60006E209BB2A4F86C301344A4F86E30237CFE
:104F70000020032B84F84A0084F850001CD9B4F8B0
:104F80005430B4F852209342238F07D913449BB274
:104F9000934288BFA4F85230594809E05B4393FB21
:104FA000F2F313449BB29342564888BFA4F85230A0
:104FB000B4F85210FBF7A8FAA26FD5F800802AB116
:104FC00013695868FCF7ECFC814600E09146A36F3A
:104FD00093B11B695868FCF7E3FCA26F1369B2F840
:104FE0000CA007469889FCF7D6FC10F0030018BF08
:104FF00001200AEB00033B44434841464A46FBF785
:1050000083FAA36F3BB9A26F0023002A62D14FF647
:10501000FF72E2865FE01B695868FCF7C1FCA36F72
:10502000B3F80C801B6907469889FCF7B4FC2B6821
:1050300010F0030018BF0120FF1A40443844002834
:10504000E1DCA36F1B695868FCF7AAFCA36F1B691E
:1050500080465868FCF7A4FCA36FB3F80C901B695A
:1050600007469889FCF797FC10F0030018BF012051
:1050700009EB00023A4441462448FBF745FAA76F82
:10508000B4F870103B68A3672148FBF73DFA7868D5
:10509000FFF703F8B4F86C305BB13B699889FCF713
:1050A0007AFCC30742BFB4F86C3003F1FF33A4F8B5
:1050B0006C307868FEF7F1FFB4F87030181AA4F875
:1050C00070003846FFF700FAB4F870101148FBF78B
:1050D0001BFA96E7E38684F8343082E00023A4F8D4
:1050E0006C307EE0E4630020D4630020E0630020A5
:1050F000E8630020A7DB0008C7DB0008DC630020B2
:1051000011DC000833DC00085FDC00088EDC0008DE
:10511000BDDC0008DCDC00081B692F685868FCF760
:105120003FFC636FB3F80C801B6981469889FCF7DC
:1051300032FC10F0030018BF0120C9EB0707404400
:105140003F1A002F50DBB84BA26D1B689B1A002B37
:105150004ADC636F1B695868FCF722FC636F1B69AC
:1051600080465868FCF71CFC636FB3F80C901B6911
:1051700007469889FCF70FFC10F0030018BF0120C8
:1051800009EB00023A444146A848FBF7BDF9676FB6
:10519000B4F870103B686367A548FBF7B5F9786809
:1051A000FEF77BFFB4F86C305BB13B699889FCF784
:1051B000F2FBC00742BFB4F86C3003F1FF33A4F830
:1051C0006C307868FEF769FFB4F87030181AA4F8EC
:1051D00070003846FFF778F99648B4F87010FBF77E
:1051E00093F9636F002B97D12B689348E16B226C86
:1051F000FBF78AF9E56B002D3AD08B4A236C1268D5
:105200009B1A002B34DA8D4B8D481B685D1BADB2A9
:10521000A9B24FF4FA7211FB02F209B2FBF774F96A
:10522000B4F8443043F3CC02AA1A92B290B201040B
:10523000134444BF524290B2B4F8462042F38D0169
:10524000511A9BB20144A4F8443089B243F3CC0311
:10525000A4F84610194489B24FF4FA72A4F8481021
:1052600011FB02F2774809B2FBF74EF90023E36322
:10527000754F626A3D88002D00F0FC803168501A3D
:1052800001282ED4531C5B1A5B1B002B29DC6F4AB0
:10529000556869898142034690460DDA2A89121AB7
:1052A00092B26989994205DA5B1A00212A816981E3
:1052B0002D68F6E7594200E0414209B22846FEF760
:1052C000A3FD6B683168C8F80830B8F80C30626A22
:1052D00032600B449B1AA8F80C30D8F810305A6092
:1052E0000EE08B1A002B0BDA5948FBF70DF994F8F6
:1052F000223043F0020384F82230204601F0EAF81D
:105300003268616A531A002BC0F2AE80531C208DA4
:105310005B1A1B1A002B00F3A780914240F0A48077
:105320004A4D2B69B5F80C809889FCF734FB10F0D6
:10533000030018BF012008EB0002B4F828E092B285
:1053400072453A8044D9636A4249434809687344C4
:10535000FBF7DAF82B699889FCF71DFBC30716D514
:105360002B694FF6C070B3F80C80FCF711FBD5F831
:10537000109000EA0808B9F80C00FCF70CFB00F0EC
:105380003E00FCF705FB48EA0000A9F80C00238D5D
:10539000AB812B69DFF8B4809889FCF7FCFA8007B1
:1053A00048BFB8F80C30686844BF03F1FF33A8F871
:1053B0000C30A989FEF74CFE2B69B5F80C80988952
:1053C000FCF7E9FA10F0030018BF012040443880D0
:1053D0003988238D32685B1A0A446262238520462D
:1053E000FFF72EF86B681A8922B11C4A1360174B1D
:1053F00000225A602B699889FCF7CDFAC10707D5BE
:105400001748FBF78FF8174A137843F020031370FF
:1054100094F82230DA0702D523F0010336E043F096
:10542000010384F822303FE0E0630020F9DC00084B
:10543000BDDC000827DD000843DD0008846800208B
:1054400072DD0008A6DD0008DC630020F0630020A8
:10545000CFDD0008D4630020F0DD0008EC630020FD
:105460003CDE0008E5630020204602B0BDE8F047BE
:1054700000F0FABF3368991A002905DB01339B1A43
:10548000228D9B1A002B0FDD94F8223043F002038B
:10549000204684F8223002B0BDE8F04701F01AB887
:1054A000002384F850309CE602B0BDE8F08700BFCE
:1054B0002DE9F041294C26680746B089FCF76BFAC4
:1054C000C0F30F30052847D923689889FCF763FAA1
:1054D000000B451FAD001436ADB20024AC423BD2E8
:1054E000335D012B07D004D3022B06EB040808D050
:1054F00028E01B4810E001341A48A4B2FBF712F868
:10550000ECE71948FBF70EF898F80130042B02D1AC
:10551000E31CAB4204DB1548BDE8F041FBF702B8E1
:1055200098F8022098F8033043EA02235A1E92B2F8
:1055300040F2B45140F2B350824288BF0B463B80E8
:10554000043407E00A48FAF7EDFF98F80130002B21
:10555000E1D01C44A4B2C1E7BDE8F081E8630020BB
:1055600057DE000869DE00087BDE00088DDE0008DB
:10557000A6DE00082DE9F04F4468A24E85B08246B1
:10558000208834600F46FCF706FAC0F3032004EBD2
:1055900080009D4C2060FFF7D9F933681888FCF72C
:1055A000FAF9C0F30320810049425046FEF72CFC73
:1055B0002546BAF8081008B9132903D89348FAF712
:1055C000A3FFDFE0306839461030FCF705FD002806
:1055D00040F0D88033684FF070401E69FCF7E0F966
:1055E00006404FF06040FCF7DBF9864200F0CA80CD
:1055F00023689889FCF7CFF9000BC0EB803081005D
:1056000009B25046FEF700FC814608B18048B7E079
:105610002468804F2088DFF830827F4EFCF7BBF98A
:1056200020802C686088FCF7B6F960802C68606880
:10563000FCF7B6F960602C683860A068FCF7B0F938
:10564000A0602C68C8F80000E089FCF7A4F92B687A
:10565000E0819889FCF79FF9C0B200F03F033370F6
:1056600010F00300BAF808306C49DFF8E0E10A688E
:10567000D5F800C0CDF808E018BF01201844614BF0
:10568000AEF800001B68144648468B46002C00F01C
:10569000E982B4F820E0BCF800108E4516D1B4F8C9
:1056A00018E0BCF802108E4510D1D3F80CE0616808
:1056B00071450BD1D3F810E02168714506D1D0B106
:1056C000E368C360554BE2601C6014E02046E46868
:1056D000DCE7218CBCF80020914200F0C682E4682F
:1056E000002CF6D14E4AD2F800E02246F146B9F13C
:1056F000000F40F0F9824B48DFF80CB1FAF704FFD5
:105700002B689889FCF747F900F03F00FFF7DEF8B7
:105710004548FAF707FF002C00F07F82207CFFF756
:10572000C9F8424ABAF808109181DAF80410916079
:10573000DBF8001011613E49E06FC2F804A00023BD
:105740000B603C4913600B70039391468B46F8B194
:105750003948FAF7E7FED4F884C0BCF1000F05D051
:105760006069E26F039B2146E04705E06046214601
:10577000E26F6346FFF714FA08B9E06708E02F48C4
:10578000FAF7D0FE504605B0BDE8F04FFEF77ABB01
:105790002B4B1C6033785A0714D5237C022B06D17F
:1057A000D8F80020A36D9A4240F03A8307E23B68A4
:1057B000626A9B1A00F13483228D9B1A002B00F33E
:1057C0002F83FCE1980704D5237C023B012B00F2D8
:1057D000A9801C4B1B682363002384F89D3004F1CF
:1057E0003800FFF765FE237C023B072B00F2F681B1
:1057F000DFE813F02E00B300060119016001060175
:105800008801CC01D8630020E8630020BADE0008DC
:10581000E9DE0008D4630020E463002080680020F3
:1058200088680020D8DF000807E00008F063002047
:10583000EC630020E563002024E0000842E000085B
:105840009868002084680020E0630020DC6300206A
:10585000A36FD8F800101B6903915868D4F858B0AA
:10586000DFF808A3FCF79CF8039903465A46B648AC
:10587000FAF74AFE337803F01203122B5CD1A36FC0
:10588000DAF800B01B695868FCF78AF801308345E4
:1058900052D1B4F86E302968208F0133A4F86E30ED
:1058A0003B685A1C6262E262DAF80020E2648A7B9A
:1058B000C97B013B42EA012223660423E118A4F8D4
:1058C0005C202374FEF7E6FF00EB80035B00A4F886
:1058D0005430B4F85230B4F870102087012B08BF50
:1058E000400001F1FF3108BF80B289B2A4F8520034
:1058F000A4F870109548FAF707FEA06F0368A36735
:105900001BB94FF6FF73E38603E00023E38684F8B8
:105910004A30FEF7D9FDD4F888301BB160692146C2
:105920000022984794F8223043F0020384F8223092
:10593000204600F0CFFD51E13378D90640F14E8189
:105940002A680299824B50880D881B68396800903C
:1059500012880192D8F800003EE03378DA0642D58A
:10596000E36CD8F80000DB43C3422BD4A36DC31A09
:10597000002B27DC04232374D9F8103075481988CC
:105980005A88FAF7C1FDE3694BB1606921460022EC
:10599000984720B120460121FFF760F932E1204607
:1059A000B4F85250FFF74AFAB4F86C3013B1013B27
:1059B000A4F86C30238F012D04BF5B009BB2A4F8C8
:1059C000523020E02A680299614B0D883968578867
:1059D0001B6800971288019203F1100229440C33CE
:1059E00000F026FFFAE09B0740F1F880636A3A680E
:1059F000013B9A4240F0F280204600F090FFEDE03B
:105A00002046FFF71BFA9BF800309F0640F1E68026
:105A100094F8223043F0020384F82230204600F04C
:105A200059FD072344E02046FFF708FA9BF80030B1
:105A300013F0200F337831D0DD0624D5D8F80020BC
:105A4000A36D9A421FD1D9F8103043485A8819885B
:105A5000FAF75AFD94F8223043F0020384F822301A
:105A6000204600F037FD2046FEF762FD3B4A1368F2
:105A7000A34260D03A4A1360002B7FD0D968A1427C
:105A80005ED00B46F8E794F8223043F0020384F826
:105A90002230204600F01EFD082309E0D80640F120
:105AA0009D80D8F80020A36D9A4240F0978006238D
:105AB000237493E02046FFF7C1F99BF80030990664
:105AC00040F18C80D9F8103026485A881988FAF7A6
:105AD0001BFD94F8223043F0020384F82230204664
